:10000000E2EF00F0F76A140FF66E000EF722090017
:10001000F550120000010404081020408081828401
:100020008890A0C0C1C2C4C8D0E0E1E2E4E8F0F129
:10003000F2F4F8F9FAF8FDFEFF002E004E4F2044CE
:10004000485431310000444F432053414920445526
:10005000204C494555204448543131004E4F2044EE
:100060005331384232300000396A395007080EE304
:1000700038BE02D08D9401D08D84969496908D9048
:1000800096908D80D8903836392AEFD7120031C03B
:1000900032F030C033F032C038F0E6DF33C038F031
:1000A000E3DF1200316A306AF2DF316A306AEFDF73
:1000B000316A306AECDF316A306AE9DF95968C8606
:1000C00095968C9695988C8895988C98959A8C8A0C
:1000D000959A8C9A959E8C8E959E8C9E95948C84E8
:1000E00095948C9431683068D2DF31683068CFDF06
:1000F000959C8C8C959C8C9C8AEF00F0FF0E926EE8
:100100003C0E936EF10E946E000E966E956E956A8F
:100110008C6AC8D7F19E056A046AC050C00B0209F8
:10012000C06EC08EC280C150C00B0C09C16E9590CC
:100130008C9028EF01F034C038F096DF35C038F0ED
:1001400093DF36C038F090DF37C038F08DDF9598F8
:100150008C8895988C98D2EF00F0EA6A340EE96E9C
:10016000EF500DE0060E016E006A002EFED7012E44
:10017000FBD77B0E006E002EFED7EF2EF3D71200BA
:10018000326A325024081CE3036A3250F2CF33F053
:10019000F29E38DF33BEF28E336E346A356A366AC9
:1001A000376EC9D731C033F0332A3306D8B403D001
:1001B0003468D3DFFAD730C034F0CFDF322AE1D74A
:1001C0002CEF01F0F86AD09EB886080EAF6E020ED2
:1001D000B06EA60EAC6E900EAB6E076A066A2A6809
:1001E0002F902F92C150C00B0F09C16E070EB46E35
:1001F0000FD00C4008FF16803033150316022190F3
:10020000913030100820022090960000000000007D
:10021000000EF86E010EF76EF20EF66E0900F55044
:10022000006E000A13E00900F550016EE8BE05D02B
:100230000F0BEA6E0900F5CFE9FF01BC090001AC24
:100240000900F5CFEEFF004EE9D7F9D7F86A56D787
:0C025000316A640E306E94D7FBD70300B7
:020000040030CA
:0E00000007CC3E1E0087A1000FC00FE00F408E
:00000001FF
;PIC18F4550
;CRC=1BCC  CREATED="25-Feb-22 14:20"
