:1000000059EF05F0F76A140FF66E000EF72209009B
:10001000F5501200C0F9A4B0999282F880908883BC
:10002000C6A1868EF76A340FF66E000EF72209001D
:10003000F550120080C094D4F76A480FF66E000E97
:10004000F7220900F5501200000102040305010225
:100050002003070306060204030306060203030542
:10006000070307202007070606030305000606040A
:10007000030501010720200700060204030500060E
:1000800002030305F76A940FF66E000EF7220900CB
:10009000F5501200070F1F1F1F1F1F1F1F1F1F00DC
:1000A000000000001C1E1F1F1F1F1F1F000000005C
:1000B000001F1F1F1F1F1F1F1F1F0F071F1F1F1F97
:1000C0001F1F1E1C1F1F1F0000001F1F1F1F1F1FA1
:1000D0001F1F1F1F2E002E002E004E4F204448547D
:1000E00031310000444F4320534149204455204CB6
:1000F000494555204448543131004E4F2044533136
:10010000384232300000464F5220000052455620FF
:10011000000053544F50000046554C4C00004841DD
:100120004C46000053544550204D4F544F523A0016
:10013000736B735107080EE372BF02D08D9401D028
:100140008D84969496908D9096908D80D8907237ED
:10015000732BEFD712005BC05CF05AC05DF05CC03F
:1001600072F0E6DF5DC072F0E3DF12005B6A5A6A8C
:10017000F2DF5B6A5A6AEFDF5B6A5A6AECDF5B6A3E
:100180005A6AE9DF95968C8695968C9695988C8818
:1001900095988C98959A8C8A959A8C9A959E8C8E27
:1001A000959E8C9E95948C8495948C945B685A68EB
:1001B000D2DF5B685A68CFDF959C8C8C959C8C9CB9
:1001C000EEEF00F0FF0E926E3C0E936EF10E946E09
:1001D000000E966E956E956A8C6AC8D7F19E056A78
:1001E000046AC050C00B0209C06EC08EC280C150EC
:1001F000C00B0C09C16E95908C90C4EF05F026C021
:1002000072F096DF27C072F093DF28C072F090DFA3
:1002100029C072F08DDF95948C8495948C9418EF9E
:1002200001F07051286E281E71C029F0291EE7D7F1
:1002300012002A802AC070F06FC071F0F2DF200E29
:10024000006E002EFED700D000002A902AC070F069
:100250006FC071F0E6DF12002A946EC06FF0E9DF24
:100260001200EA6A5D0EE96EEF500DE0060E016EB7
:10027000006A002EFED7012EFBD77B0E006E002EEB
:10028000FED7EF2EF3D712002A902A922A842A96BC
:10029000380E6E6FE1DF420E006E002EFED70000BA
:1002A0000C0E6E6FD9DF420E006E002EFED70000DE
:1002B000010E6E6FD1DF020E5D6ED3DF060E6E6F24
:1002C000CBDF420E006E002EFED70000CEEF05F011
:1002D0002A846BC06FF0ADDF1200400E6E6FBCDF82
:1002E0005A6A5A503F080DE3036A5A50F2CF5BF046
:1002F000F29EC8DE5BBEF28E5B6E6B6FE9DF5A2A40
:10030000F0D7D0EF05F0036A6B51F2CF6DF0F29E9B
:1003100089DE6DBFF28E6C256D6F6E6F9DDF1200F2
:100320000900F5520CE0F6CF63F0F7CF64F0F5CF9B
:100330006BF0CEDF63C0F6FF64C0F7FFF1D71200A9
:10034000010E6B6F6C6BDFDF120EF66E010EF76E37
:10035000E7DF1200010E6B6F050E6C6FD4DF33A860
:1003600006D0180EF66E010EF76EDADF05D01E0EFF
:10037000F66E010EF76ED4DF1200016A026A006A9F
:10038000036A6A5102E1695118E0100E6B6FD89050
:1003900067376837003603366A51035C02E16951FA
:1003A000005C07E36951005ED8A003066A51035E52
:1003B000D880013602366B2FEAD71200006A016A34
:1003C0006A51D8906BB10026003201326BB300261F
:1003D000003201326BB50026003201326BB70026C5
:1003E000003201326BB90026003201326BBB0026AD
:1003F000003201326BBD0026003201326BBF002695
:10040000003201321CEF02F067C06BF068C06CF084
:100410007ADF696B6951050824E36951030807E134
:10042000010E67256A6F6B6F68C06CF06CDF66C089
:100430006AF0060E6B6FC2D701506B6B6A6F036A6E
:1004400069516A25016E6B5103220150F2CF6AF0A7
:10045000F29EF2DD6ABFF28E6A6F6B6F39DF692B35
:10046000D9D7120065C06BF066C06CF04CDF676BCB
:10047000675105080FE36751030807E1010E652581
:10048000686F6B6F66C06CF03EDF200E6B6F20DF15
:10049000672BEED78AEF02F060C06BF061C06CF0A2
:1004A00032DF5FC068F05EC067F06A6B0A0E696F8A
:1004B00064DF02C066F001C065F002C068F001C0F0
:1004C00067F06A6B0A0E696F58DF00C063F05FC0A7
:1004D00068F05EC067F06A6B0A0E696F4EDF00C09D
:1004E00064F063C066F060C067F061C068F08CDFE4
:1004F000030E6125656F64C066F060C067F0686FC9
:1005000083DF635307E1625305E060C065F061C0BB
:1005100066F0A8D7F4EF02F061C06BF062C06CF037
:10052000F2DED60EF66E000EF76EFADE60C068F0F0
:100530005FC067F06A6B640E696F1FDF02C064F012
:1005400001C063F0300E6327000E642363C06BF0BC
:10055000BFDE60C068F05FC067F06A6B0A0E696F4B
:100560000CDF02C064F001C063F002C068F001C09B
:1005700067F06A6B0A0E696F00DF00C063F003C0AA
:1005800064F0300E6327000E642363C06BF0A0DEBE
:1005900060C068F05FC067F06A6B0A0E696FEDDEDD
:1005A00000C063F003C064F0300E6327000E6423C4
:1005B00063C06BF08DDE0BEF03F05650585C03E127
:1005C0005750595C11E057C059F056C058F05C5272
:1005D0000BE057C05FF056C05EF05AC060F05BC0E1
:1005E00061F0010E626F58D75250545C03E15350D2
:1005F000555C11E053C055F052C054F05D520BE011
:10060000060E5B245E6E53C060F052C05FF05AC0AD
:1006100061F0626F81D71200036A5C50080FE96EC7
:10062000000E0320EA6E5BC068F05AC067F06A6B88
:100630000A0E696FA2DE00C060F003C061F003C063
:1006400003F00050F2CF62F0F29EDCDC62BFF28E6B
:10065000EF6E010E5C5C036A080FE96E000E03206A
:10066000EA6E5BC068F05AC067F06A6B0A0E696F89
:1006700084DE02C061F001C060F002C068F001C019
:1006800067F06A6B0A0E696F78DE00C060F003C025
:1006900061F003C003F00050F2CF62F0F29EB2DCD2
:1006A00062BFF28EEF6E020E5C5C036A080FE96EA9
:1006B000000E0320EA6E5BC068F05AC067F06A6BF8
:1006C000640E696F5ADE02C061F001C060F002C0C2
:1006D00068F001C067F06A6B0A0E696F4EDE00C0F9
:1006E00060F003C061F003C003F00050F2CF62F08D
:1006F000F29E88DC62BFF28EEF6E5D2C28D0020E77
:100700005C5C036A080FE96E000E0320EA6EEF508E
:10071000C0081DE1020E5C5C036A080FE96E000E62
:100720000320EA6EEF68010E5C5C036A080FE96E55
:10073000000E0320EA6EEF50C00809E1010E5C5C78
:10074000036A080FE96E000E0320EA6EEF68C4EF3B
:1007500003F00BC072F0ECDC0AC072F0E9DC09C0F7
:1007600072F0E6DC08C072F0E3DC959C8C9C959CF2
:100770008C8CDCEF03F053C05BF052C05AF0030ED8
:100780005C6E010E5D6E48D757C068F056C067F0CA
:100790006A6B0A0E696FF1DD00C05AF003C05BF0AE
:1007A00003C003F00050F2CF5CF0F29E2BDC5CBE85
:1007B000F28E7F0B086ECDD7120062C072F0B8DCEB
:1007C00063C072F0B5DC64C072F0B2DC65C072F078
:1007D000AFDC95988C8895988C9800EF04F05BC0FE
:1007E0005EF05AC05FF05DC060F05CC061F05EC05A
:1007F00062F05FC063F060C064F061C065F0DDD797
:100800001200010E6B6F6C6B7EDD33A406D0060EFA
:10081000F66E010EF76E84DD05D00C0EF66E010E3D
:10082000F76E7EDD1200030E5D5E09E3EA6A5D0E7F
:10083000E96EEF5004E001D000D0EF2EFDD712009A
:10084000938681B61BD0062AD8B4072A020E5C6EA6
:10085000F90E5D6EE8DF5C2EFBD75B50075C0AE3A8
:1008600003E15A50065C06E3076A066A010E016E50
:1008700007D003D0000E016E03D002D0000E016E2F
:1008800090EF04F004C05CF005C05DF05DC072F054
:100890004FDC5CC072F04CDC95968C8695968C96FD
:1008A00012000580EFDF5BC05CF05C2A5C06D8B408
:1008B00003D05D68D6DCFAD75AC05DF0D2DC059073
:1008C000E1DF1200938A81BA12D033B610D033869A
:1008D000516A50684F6A4E684FC05BF04EC05AF084
:1008E00051C05DF050C05CF07ADF8BDF2FD0938871
:1008F00081B812D033A610D03396516A506A4F6A2D
:100900004E6A4FC05BF04EC05AF051C05DF050C00F
:100910005CF065DF15DD1AD05B6A140E5A6E90D755
:10092000015214E033A60ED03374501E511E4FC036
:100930005BF04EC05AF051C05DF050C05CF04FDF2C
:1009400060DF04D05B6A640E5A6EABDFE7EF05F040
:10095000938481B41BD0062AD8B4072A020E5C6E99
:10096000F90E5D6E60DF5C2EFBD75B50075C0AE31F
:1009700003E15A50065C06E3076A066A010E016E3F
:1009800007D003D0000E016E03D002D0000E016E1E
:10099000CEEF04F05B6A140E5A6EDAD7015217E0FC
:1009A00033A611D033784E1E4F1E4FC05BF04EC0A1
:1009B0005AF051C05DF050C05CF011DFCBDC640E2A
:1009C0005D6E4FDC04D05B6A640E5A6E6ADFE8EF3E
:1009D00005F0E00E0416D8904C34036A340FE96E2B
:1009E000000E0320EA6EECCF03F0ED52EF5004123C
:1009F0000350051247DF4C2A030E4C161CEF05F07E
:100A0000E00E0416D8904C34036A340FE96E000EE1
:100A10000320EA6EECCF03F0ED52EF5004120350C6
:100A2000051230DF4C06030E4C161CEF05F033A404
:100A300002D0CFD701D0E4D758EF05F0E00E04166E
:100A4000D8904C34036A3C0FE96E000E0320EA6E26
:100A5000ECCF03F0ED52EF5004120350051212DFF9
:100A60004C2A070E4C1651EF05F0E00E0416D890F4
:100A70004C34036A3C0FE96E000E0320EA6EECCFA3
:100A800003F0ED52EF50041203500512FBDE4C064A
:100A9000070E4C1651EF05F033A402D0CFD701D08A
:100AA000E4D758EF05F033A802D0C1D701D0F4D76E
:100AB0001200F86AD09EB886080EAF6E020EB06EB5
:100AC000A60EAC6E900EAB6E076A066A2A68306A94
:100AD000220E2F6E326A200E316E339033924C6AA2
:100AE0003394339633884F6A4E6A516A506A536A18
:100AF000526A556A010E546E576A566A596A586EA0
:100B0000C150C00B0F09C16E070EB46E1CD00C4053
:100B100008FF1680505814080506229095303010B2
:100B2000082002209096000000001800341D0017D5
:100B3000001B000F001D001500170013001B000B09
:100B4000000F000D0000000EF86E0B0EF76E0E0E7B
:100B5000F66E0900F550006E000A13E00900F5502A
:100B6000016EE8BE05D00F0BEA6E0900F5CFE9FF74
:100B700001BC090001AC0900F5CFEEFF004EE9D73A
:100B8000F9D7F86AE2EF00F0140E4D6E3384338823
:100B9000536A526A576A566A44EF01F06DEF01F0EA
:100BA0006B6B6C6B83EC01F0240EF66E010EF76E2E
:100BB00090EC01F0A0EC01F0AAEC01F0020E5A6EEC
:100BC0005B6A010E5C6E5D6EF8DCD5DD7BD6E2D62D
:100BD00033A628D068DF4DC05DF031EC01F033B8AA
:100BE00005D061DF4DC05DF031EC01F0522AD8B480
:100BF000532A5250C8080EE153520CE1536A526A0C
:100C0000562AD8B4572A5650630804E1575202E1D5
:100C1000576A566A020E5A6E5B6A010E5C6E5D6E12
:080C2000CCDCA9DDD3D70300F1
:020000040030CA
:0E00000007CC3E1E0087A1000FC00FE00F408E
:00000001FF
;PIC18F4550
;CRC=F212  CREATED="03-Jun-23 11:34"
