:10000000CBEF05F0F76A140FF66E000EF722090029
:10001000F5501200C0F9A4B0999282F880908883BC
:10002000C6A1868EF76A340FF66E000EF72209001D
:10003000F550120080C094D4F76A480FF66E000E97
:10004000F7220900F5501200000102040305010225
:100050002003070306060204030306060203030542
:10006000070307202007070606030305000606040A
:10007000030501010720200700060204030500060E
:1000800002030305F76A940FF66E000EF7220900CB
:10009000F5501200070F1F1F1F1F1F1F1F1F1F00DC
:1000A000000000001C1E1F1F1F1F1F1F000000005C
:1000B000001F1F1F1F1F1F1F1F1F0F071F1F1F1F97
:1000C0001F1F1E1C1F1F1F0000001F1F1F1F1F1FA1
:1000D0001F1F1F1F2E002E002E004E4F204448547D
:1000E00031310000444F4320534149204455204CB6
:1000F000494555204448543131004E4F2044533136
:10010000384232300000555000004457000052750C
:100110006E20000053746F70000044656D207361A1
:100120006E207068616D2064756E67205430200009
:1001300047484400475444005472616E6720746815
:1001400061693A2053746F70202055500000446557
:100150006D2073616E207068616D205430004769B6
:100160006F692068616E2064656D3A20313000004F
:10017000476961207472692064656D203A2000002F
:100180000401556B555107080EE354BF02D08D94FE
:1001900001D08D84969496908D9096908D80D89075
:1001A0005437552BEFD70001120041C442F440C42C
:1001B00043F442C454F4E4DF43C454F4E1DF1200D6
:1001C0000401416B406B0001F0DF0401416B406BA7
:1001D0000001EBDF0401416B406B0001E6DF04012D
:1001E000416B406B0001E1DF95968C8695968C966D
:1001F00095988C8895988C98959A8C8A959A8C9AD3
:10020000959E8C8E959E8C9E95948C8495948C94C2
:100210000401416940690001C8DF04014169406986
:100220000001C3DF959C8C8C959C8C9C24EF01F085
:10023000FF0E926E3C0E936EF10E946E000E966E53
:10024000956E956A8C6ABCD7F19E056A046AC050A7
:10025000C00B0209C06EC08EC280C150C00B0C0919
:10026000C16E95908C9019EF06F026C054F488DF8B
:1002700027C054F485DF28C054F482DF29C054F429
:100280007FDF95948C8495948C941200040152C461
:1002900028F0281E53C429F0291E0001E6DF1200B1
:1002A0002A802AC052F451C453F4F0DF200E006EAD
:1002B000002EFED700D000002A902AC052F451C46C
:1002C00053F4E4DF12002A9450C451F4E9DF120021
:1002D000040EEA6E430EE96EEF500DE0060E016E5D
:1002E000006A002EFED7012EFBD77B0E006E002E7B
:1002F000FED7EF2EF3D712002A902A922A842A964C
:10030000380E0401506F0001DEDF420E006E002E39
:10031000FED700000C0E0401506F0001D4DF420E26
:10032000006E002EFED70000010E0401506F000188
:10033000CADF020E0401436F0001CADF060E04018A
:10034000506F0001C0DF420E006E002EFED700008D
:100350001BEF06F0036A04014D51F2CF4FF4F29EF9
:10036000000160DE04014FBFF28E4E254F6F506FCB
:100370000001A9DF12002A844DC451F491DF12005C
:100380000900F5520CE0F6CF40F4F7CF41F4F5CF79
:100390004DF4F1DF40C4F6FF41C4F7FFF1D712007E
:1003A000400E0401506F00018EDF0401406B40518C
:1003B0003F0811E3036A4051F2CF41F4F29E00017D
:1003C00061DE040141BFF28E416F4D6F0001D3DF4A
:1003D0000401402BECD7000151EF06F00401475116
:1003E000016A465D03E246C400F00CD0006A080EC4
:1003F000486F463700364751005CD8B0006E013672
:10040000482FF7D700011200006A016A04014C511D
:10041000D8904DB10026003201324DB30026003293
:1004200001324DB50026003201324DB700260032B0
:1004300001324DB90026003201324DBB0026003298
:1004400001324DBD0026003201324DBF0026003280
:100450000132000148EF02F049C44DF44AC44EF4A1
:1004600079DF04014B6B4B5105082CE34B5103081A
:1004700009E1010E49254C6F4D6F4AC44EF400014D
:1004800069DF040148C44CF4060E4D6F0001BCD76F
:10049000015004014D6B4C6F036A4B514C25016EAA
:1004A0004D5103220150F2CF4CF4F29E0001C4DD05
:1004B00004014CBFF28E4C6F4D6F00015CDF0401F4
:1004C0004B2BD1D7000112003BC446F40A0E0401A5
:1004D000476F000183DF01C046F40A0E0401476F35
:1004E00000017CDF00C040F400C048F4010E0401AC
:1004F000496F040E4A6F0001AFDF3BC446F40A0E99
:100500000401476F00016ADF00C040F400C048F4F6
:10051000010E0401496F070E4A6F00019DDF5DEF78
:1005200006F0040146C426F0261E47C427F0271E05
:1005300000019BDE1200348434C046F445C447F405
:10054000F0DF200E006E002EFED700D000003494A5
:1005500034C046F445C447F4E4DF1200349843C481
:1005600045F4E9DF12003480348234943496349AAE
:1005700040C443F4F3DF100E006E002EFED70000DF
:100580000C0E0401436F0001E9DF100E006E002E17
:10059000FED70000010E0401436F0001DFDF0A0EE9
:1005A0000401436F000194DE060E0401436F000155
:1005B000D5DF100E006E002EFED7000062EF06F0B1
:1005C000348844C445F4B7DF12000900F5520CE04A
:1005D000F6CF40F4F7CF41F4F5CF44F4F1DF40C457
:1005E000F6FF41C4F7FFF1D71200030E0401435F89
:1005F0000AE3040EEA6E430EE96EEF5004E001D008
:1006000000D0EF2EFDD700011200938A81BA1FD0CF
:10061000062AD8B4072A020E0401426FF90E436F6E
:100620000001E3DF0401422FF9D74151075C0AE3DF
:1006300003E14051065C06E3076A066A010E016E9B
:1006400009D003D0000E016E05D004D00001000EC9
:10065000016E0401000165EF03F048C454F490DD1D
:1006600049C454F48DDD4AC454F48ADD4BC454F4B7
:1006700087DD95988C8895988C9850EF03F041C44D
:1006800044F440C445F443C446F442C447F444C46B
:1006900048F445C449F446C44AF447C44BF4DDD792
:1006A0001200030E04014D6F0C0E4E6F000152DE5E
:1006B0000E0EF66E010EF76E63DE77EF03F00401A7
:1006C000416B640E406F0001A0D7012C10D0A80E22
:1006D000D56E04013F693E693DC441F43CC440F419
:1006E0003FC443F43EC442F40001C9DFDAD781EFCE
:1006F00006F0938881B81FD0062AD8B4072A020EC4
:100700000401426FF90E436F00016FDF0401422FB5
:10071000F9D74151075C0AE303E14051065C06E367
:10072000076A066A010E016E09D003D0000E016E41
:1007300005D004D00001000E016E04010001B5EFE8
:1007400003F0030E04014D6F0C0E4E6F000102DE2C
:10075000140EF66E010EF76E13DEC4EF03F0040103
:10076000416B640E406F0001C4D7012C0DD0D56AD7
:1007700004013F6B3E6B416B406B3FC443F43EC48E
:1007800042F400017CDFDDD782EF06F0938681B66C
:100790001FD0062AD8B4072A020E0401426FF90EB0
:1007A000436F000122DF0401422FF9D74151075C5A
:1007B0000AE303E14051065C06E3076A066A010E9C
:1007C000016E09D003D0000E016E05D004D00001E7
:1007D000000E016E0401000111EF04F0030E04018C
:1007E0004D6F120E4E6F0001B5DD0A0EF66E010E52
:1007F000F76EC6DD2CEF04F0030E04014D6F120EF0
:100800004E6F0001A7DD060EF66E010EF76EB8DD25
:100810002CEF04F0010E0401416F2C0E406F00011B
:10082000B5D7012C19D0040138513B5D386FD76A18
:1008300038C4D6FF33743C1F3D1F3DC441F43CC453
:1008400040F43FC443F43EC442F4000118DF33A433
:1008500002D0C4D701D0D0D783EF06F004C042F451
:1008600005C043F443C454F48BDC42C454F488DC24
:1008700095968C8695968C9612000580EFDF41C484
:1008800042F40401422B4207D8B405D04369000169
:100890001FDD0401F8D740C443F4000119DD0590C1
:1008A000DDDFBEEF05F033B403D038C439F405D032
:1008B000040138513B5D396F00011200036A0401E5
:1008C0004151080FE96E000E0320EA6E40C446F461
:1008D0000A0E476F000182DD036A0050F2CF45F433
:1008E000F29E02EC00F0040145BFF28EEF6E010EA5
:1008F000415D036A080FE96E000E0320EA6E40C4F2
:1009000046F40A0E476F000169DD01C046F40A0E85
:100910000401476F000162DD036A0050F2CF45F425
:10092000F29E02EC00F0040145BFF28EEF6E422D04
:1009300014D0010E415D036A080FE96E000E03201A
:10094000EA6EEF50C00809E1010E415D036A080F2D
:10095000E96E000E0320EA6EEF68000112000BC082
:1009600054F40EDC0AC054F40BDC09C054F408DC67
:1009700008C054F405DC959C8C9C959C8C8CD4EF21
:1009800004F091DF39C440F4030E0401416F010EFD
:10099000426F000193DF3BC440F4010E0401416F3C
:1009A000426F00018BDFDBD7C1EF05F0016A026AFD
:1009B000006A036A04014C5102E14B5118E0100E29
:1009C0004D6FD89049374A37003603364C51035C97
:1009D00002E14B51005C07E34B51005ED8A00306D7
:1009E0004C51035ED880013602364D2FEAD7000104
:1009F000120047C44DF448C44EF4ACDC0401496B0A
:100A00004951050813E34951030809E1010E47253F
:100A10004A6F4D6F48C44EF400019CDC0401200E67
:100A20004D6F0001A8DC0401492BEAD7000163EFF8
:100A300005F042C44DF443C44EF48CDC41C44AF486
:100A400040C449F404014C6B0A0E4B6F0001AEDF49
:100A500002C048F401C047F402C04AF401C049F49E
:100A600004014C6B0A0E4B6F0001A0DF00C045F47F
:100A7000040141C44AF440C449F44C6B0A0E4B6F64
:100A8000000194DF00C046F4040145C448F442C4A8
:100A900049F443C44AF40001DFDC030E040143259A
:100AA000476F46C448F442C449F44A6F0001D4DC9D
:100AB0000401455309E1445307E042C447F443C4E9
:100AC00048F4000196D70401000174EF05F0EBDE55
:100AD0000401416B39C440F4010E426F0E0E436FA6
:100AE000010E446F0001A5D7C2EF05F0DCDE39C46A
:100AF00046F40A0E0401476F000170DC01C046F4A1
:100B00000A0E0401476F000169DC00C041F439C4DA
:100B100046F40A0E0401476F000160DC00C042F495
:100B200040C443F41BDD0401415306E1200E446F31
:100B3000000146DD07D00401300E4125436F446FAC
:100B400000013EDD300E04014225436F446F000179
:100B500037DDC7EF05F0D6500401386F38513A5DE4
:100B600017E038C43AF438513B5D09E2D76AD66AD7
:100B7000010E416F2C0E406F00017FD60401000171
:100B800000D7A5D78F0E0401406F0001AFD7040135
:100B9000000184EF06F0F86AD09EB886080EAF6EAA
:100BA000020EB06EA60EAC6E900EAB6E076A066AB1
:100BB0002A68306A220E2F6E326A200E316E339010
:100BC00033923394C150C00B0F09C16E070EB46E3F
:100BD0000FD00C4008FF168030370807040622901B
:100BE0009530301008200220909600000000000090
:100BF000000EF86E0B0EF76ED20EF66E0900F55071
:100C0000006E000A13E00900F550016EE8BE05D041
:100C10000F0BEA6E0900F5CFE9FF01BC090001AC3A
:100C20000900F5CFEEFF004EE9D7F9D7F86A18EFC3
:100C300001F07CEF01F004014D6B4E6B0001AAEC5A
:100C400001F01A0EF66E010EF76EC0EC01F0010E07
:100C500004014D6F4E6B0001AAEC01F0300EF66EF0
:100C6000010EF76EC0EC01F0010E04014D6F0A0E8B
:100C70004E6F0001AAEC01F0340EF66E010EF76E15
:100C8000C0EC01F0030E04014D6F4E6B0001AAECA5
:100C900001F0380EF66E010EF76EC0EC01F0D0EFE9
:100CA00001F0D56AD76AD66A010E04013A6F3D6B2E
:100CB0003C69320E3B6F000107D4300E0401406FD7
:100CC000000151D4800E0401436F000147DC4E0E39
:100CD000F66E010EF76E79DC900E0401436F000191
:100CE0003DDC5E0EF66E010EF76E6FDC880E0401C1
:100CF000436F000133DC700EF66E010EF76E65DC9B
:0C0D0000DED42DD587D527D7FBD7030004
:020000040030CA
:0E00000007CC3E1E0087A1000FC00FE00F408E
:00000001FF
;PIC18F4550
;CRC=9850  CREATED="05-Jun-22 11:10"
