:1000000054EF02F0F76A140FF66E000EF7220900A3
:10001000F5501200C0F9A4B0999282F880908883BC
:10002000C6A1868EF76A340FF66E000EF72209001D
:10003000F55012007FBFDFEFF7FBFDFEFF002E0043
:100040002E002E004E4F2044485431310000444FC2
:100050004320534149204455204C494555204448AC
:10006000543131004E4F2044533138423230000079
:10007000576A575007080EE356BE02D08D9401D040
:100080008D84969496908D9096908D80D8905636CB
:10009000572AEFD7120052C053F051C054F053C04A
:1000A00056F0E6DF54C056F0E3DF1200526A516AA0
:1000B000F2DF526A516AEFDF526A516AECDF526A2C
:1000C000516AE9DF95968C8695968C9695988C88E2
:1000D00095988C98959A8C8A959A8C9A959E8C8EE8
:1000E000959E8C9E95948C8495948C9452685168BE
:1000F000D2DF52685168CFDF959C8C8C959C8C9C8C
:100100008EEF00F0FF0E926E3C0E936EF10E946E29
:10011000000E966E956E956A8C6AC8D7F19E056A38
:10012000046AC050C00B0209C06EC08EC280C150AC
:10013000C00B0C09C16E95908C90B2EF02F0080EC6
:10014000016E050E006E002EFED78A929392060E67
:10015000006E002EFED754368A90D8B09380D8A077
:100160009390938281A2FED7012EEBD7050E006EED
:10017000002EFED78A92939200009380060E006EA6
:10018000002EFED7060E006E002EFED7938281A2AF
:10019000FED7016A060E006E002EFED781B00180E8
:1001A0008A9293928A9093901200080E566E00C025
:1001B00057F09380060E006E002EFED7938281A228
:1001C000FED781B0D88081A0D8900136050E006E90
:1001D000002EFED793928A92562EEBD79380060E6E
:1001E000006E002EFED78A905750D8A4939000003E
:1001F000938281A2FED7050E006E002EFED78A9252
:100200009392060E006E002EFED78A9093901200F5
:100210009380050E006E002EFED79382060E006EB0
:10022000002EFED78A909390050E006E002EFED70A
:100230008A929392D00E546E82DF546A80DF93804C
:10024000050E006E002EFED79382060E006E002E65
:10025000FED781A2FED78A909390050E006E002EE5
:10026000FED78A929392D10E546E69DF526A515032
:10027000525C0EE2036A52501D0FE96E000E03201D
:10028000EA6E010E006E91DF01C0EFFF522AEFD738
:10029000006A8BDF01C052F093900000938281A22C
:1002A000FED7050E006E002EFED700D00000938012
:1002B000050E006E002EFED712009380050E006E14
:1002C000002EFED79382060E006E002EFED78A9077
:1002D0009390050E006E002EFED78A929392D00E58
:1002E000546E2DDF546A2BDF526A525008081DE30A
:1002F00051520DE0036A5250140FE96E000E0320B4
:10030000EA6EEFCF53F053C054F019DF0CD0036AFC
:1003100052501D0FE96E000E0320EA6EEFCF53F02E
:1003200053C054F00CDF522AE0D793900000938220
:1003300081A2FED7050E006E002EFED700D0000071
:100340009380050E006E002EFED7B0EF01F0090E6F
:10035000516E5EDF25501C5C03E0010E516EADD77F
:10036000B3EF02F0036A5350F2CF55F0F29E5ADE1B
:1003700055BEF28E016E556E551E55C056F078DE94
:1003800054C055F0551E55C056F072DE959A8C8AB1
:10039000959A8C9A1200EA6A520EE96EEF500DE0BF
:1003A000060E016E006A002EFED7012EFBD77B0ED3
:1003B000006E002EFED7EF2EF3D7FBEF01F0080EF4
:1003C000536E5468CFDFFCEF01F0516A516A51500F
:1003D000070814E3036A51500C0FE96E000E032066
:1003E000EA6EEFCF52F051C053F052C054F0BADF72
:1003F000010E526ED0D7E3D7512AE9D7B8EF02F0F9
:10040000036A52500C0FE96E000E0320EA6E515041
:100410000F0B036AF2CF56F0F29EF4DD56BEF28E59
:10042000EF6E010E5224036A0C0FE96E000E0320DA
:10043000EA6E5138006E0F0E00160050036AF2CFBC
:1004400056F0F29EDFDD56BEF28EEF6E532C14D0C6
:10045000010E5224036A0C0FE96E000E0320EA6EAF
:10046000EF50C00809E1010E5224036A0C0FE96E37
:10047000000E0320EA6EEF681200080E516EC8DE0F
:100480001DC051F0526A536ABBDF1EC051F0030E0B
:10049000526E536AB5DF1FC051F0060E526E010E48
:1004A000536EAEDFBBEF02F0F86AD09EB886080E3E
:1004B000AF6E020EB06EA60EAC6E900EAB6E076AFB
:1004C000066A2A68306A220E2F6E326A200E316E5A
:1004D000339033924C6A339433863398339AC150B5
:1004E000C00B0F09C16E070EB46E1CD00C4008FF84
:1004F00016805058140805062290953030100820B8
:1005000002209096000000001800341D0017001B08
:10051000000F001D001500170013001B000B000F3B
:10052000000D0000000EF86E040EF76EEC0EF66E75
:100530000900F550006E000A13E00900F550016E45
:10054000E8BE05D00F0BEA6E0900F5CFE9FF01BC4C
:10055000090001AC0900F5CFEEFF004EE9D7F9D74D
:10056000F86AD0D5F4D6506A5050310803E32DD73D
:0A057000502AFAD782D7F7D703000C
:020000040030CA
:0E00000007CC3E1E0087A1000FC00FE00F408E
:00000001FF
;PIC18F4550
;CRC=9B9F  CREATED="30-Jun-23 13:26"
