:100000006DEF01F02E002E002E004E4F204448547C
:1000100031310000444F4320534149204455204C86
:10002000494555204448543131004E4F2044533106
:100030003842323000005E6A5E5007080EE35DBE53
:1000400002D08D9401D08D84969496908D90969048
:100050008D80D8905D365E2AEFD7120052C053F0E3
:1000600051C054F053C05DF0E6DF54C05DF0E3DFF3
:100070001200526A516AF2DF526A516AEFDF526A25
:10008000516AECDF526A516AE9DF95968C86959643
:100090008C9695988C8895988C98959A8C8A959A38
:1000A0008C9A959E8C8E959E8C9E95948C8495941E
:1000B0008C9452685168D2DF52685168CFDF959CAA
:1000C0008C8C959C8C9C71EF00F0FF0E926E3C0E18
:1000D000936EF10E946E000E966E956E956A8C6A14
:1000E000C8D7F19E056A046AC050C00B0209C06EF1
:1000F000C08EC280C150C00B0C09C16E95908C900F
:10010000CDEF01F004C053F005C054F054C05DF0D1
:1001100092DF53C05DF08FDF95968C8695968C9616
:100120001200048AEFDFCEEF01F094928B92949448
:100130008B94120094928B8294948B94ADEF00F088
:1001400094928B9294948B84ADEF00F033AA06D0F6
:1001500033A802D0EFD701D0F3D701D0E6DF1200E9
:1001600059C05DF068DF5AC05DF065DF5BC05DF0CF
:1001700062DF5CC05DF05FDF95988C8895988C9805
:10018000D3EF00F052C055F051C056F054C057F0B4
:1001900053C058F055C059F056C05AF057C05BF0E4
:1001A00058C05CF0DDD71200030E545E09E3EA6A22
:1001B000540EE96EEF5004E001D000D0EF2EFDD7D1
:1001C000EDEF00F0938681B61BD0062AD8B4072A3B
:1001D000020E536EF90E546EE7D7532EFBD75250D2
:1001E000075C0AE303E15150065C06E3076A066A0E
:1001F000010E016E07D003D0000E016E03D002D0B5
:10020000000E016E4FEF01F0EA6A540EE96EEF50F6
:100210000DE0060E016E006A002EFED7012EFBD700
:100220007B0E006E002EFED7EF2EF3D71200058056
:1002300069DF52C053F0532A5306D8B403D0546830
:10024000E3DFFAD751C054F0DFDF05905BDF6BEFDF
:1002500001F0938A81BA0ED033BA0CD0338A76DF9C
:10026000506A4F68526A516A50C054F04FC053F000
:1002700089DF31D0938881B80ED033AA0CD0339A5D
:1002800065DF506A4F6A526A516A50C054F04FC0DD
:1002900053F078DF20D0526A320E516E93D701525C
:1002A0001AE033AA14D041DF4F1E501E526A516A21
:1002B00050C054F04FC053F065DF020E516EFA0E7D
:1002C000546EA2DF512EFBD7337840DF04D0526A40
:1002D000640E516EACD7D0EF01F0F86AD09EB886AC
:1002E000080EAF6E020EB06EA60EAC6E900EAB6E28
:1002F000076A066A2A68306A220E2F6E326A200E5A
:10030000316E339033924C6A339433863398339AF8
:10031000506A4F6AC150C00B0F09C16E070EB46E10
:100320001CD00C4008FF1680505814080506229077
:100330009530301008200220909600000000180030
:10034000341D0017001B000F001D001500170013BF
:10035000001B000B000F000D0000000EF86E030ED6
:10036000F76E220EF66E0900F550006E000A13E0DB
:100370000900F550016EE8BE05D00F0BEA6E0900CA
:10038000F5CFE9FF01BC090001AC0900F5CFEEFF94
:10039000004EE9D7F9D7F86A98D6C3D6C6DE59D742
:0403A000FED7030081
:020000040030CA
:0E00000007CC3E1E0087A1000FC00FE00F408E
:00000001FF
;PIC18F4550
;CRC=B75C  CREATED="22-Jul-23 13:49"
