:1000000013EF01F02E004E4F2044485431310000D0
:10001000444F4320534149204455204C49455520E5
:100020004448543131004E4F20445331384232302D
:100030000000516A515007080EE350BE02D08D9463
:1000400001D08D84969496908D9096908D80D890C6
:100050005036512AEFD7120031C032F030C033F0A1
:1000600032C050F0E6DF33C050F0E3DF1200316AF7
:10007000306AF2DF316A306AEFDF316A306AECDF12
:10008000316A306AE9DF95968C8695968C969598BC
:100090008C8895988C98959A8C8A959A8C9A959E2E
:1000A0008C8E959E8C9E95948C8495948C943168BE
:1000B0003068D2DF31683068CFDF959C8C8C959C9E
:1000C0008C9C6FEF00F0FF0E926E3C0E936EF10E63
:1000D000946E000E966E956E956A8C6AC8D7F19EE6
:1000E000056A046AC050C00B0209C06EC08EC2808F
:1000F000C150C00B0C09C16E95908C9059EF01F066
:100100004CC050F096DF4DC050F093DF4EC050F021
:1001100090DF4FC050F08DDF95988C8895988C9823
:10012000A3EF00F045C048F044C049F047C04AF092
:1001300046C04BF048C04CF049C04DF04AC04EF0AC
:100140004BC04FF0DDD7F5EF00F0EA6A450EE96EDF
:10015000EF500DE0060E016E006A002EFED7012E54
:10016000FBD77B0E006E002EFED7EF2EF3D71200CA
:100170003768FE0E366E3B6A010E3A6E7F0E3F6E9A
:100180003E68800E416E406A436A43BE03D04350CE
:100190000F0847E33BC039F03AC038F041C03DF0AA
:1001A00040C03CF0010E4324426E42BE2CD042506F
:1001B000000829E2D8903932383236503810326E81
:1001C00037503910336ED8903C363D363E503C1097
:1001D000346E3F503D10356E33C045F032C044F0B0
:1001E00035C047F034C046F09DD731C044F0442AB2
:1001F0004406D8B403D04568A8DFFAD730C045F02C
:10020000A4DF4206D2D7D89036363736D8903A3661
:100210003B36D8903F323E32D89041324032432A6A
:10022000B4D75DEF01F0F86AD09EB886080EAF6EC5
:10023000020EB06EA60EAC6E900EAB6E076A066A2A
:100240002A682F902F92C150C00B0F09C16E070E64
:10025000B46E0FD00C4008FF168030331503160221
:10026000219091303010082002209096000000006C
:100270000000000EF86E020EF76E540EF66E0900C6
:10028000F550006E000A13E00900F550016EE8BE5B
:1002900005D00F0BEA6E0900F5CFE9FF01BC09009C
:1002A00001AC0900F5CFEEFF004EE9D7F9D7F86AA7
:0E02B0000AD7316A640E306E5BD7FBD70300AD
:020000040030CA
:0E00000007CC3E1E0087A1000FC00FE00F408E
:00000001FF
;PIC18F4550
;CRC=14FC  CREATED="25-Feb-22 15:45"
