:10000000BAEF01F0F76A140FF66E000EF72209003E
:10001000F5501200C0F9A4B0999282F880908883BC
:10002000C6A1868E2E002E002E004E4F204448542E
:1000300031310000444F4320534149204455204C66
:10004000494555204448543131004E4F20445331E6
:100050003842323000004A6A4A5007080EE349BE6F
:1000600002D08D9401D08D84969496908D90969028
:100070008D80D89049364A2AEFD7120046C047F003
:1000800045C048F047C049F0E6DF48C049F0E3DF2B
:100090001200466A456AF2DF466A456AEFDF466A41
:1000A000456AECDF466A456AE9DF95968C86959647
:1000B0008C9695988C8895988C98959A8C8A959A18
:1000C0008C9A959E8C8E959E8C9E95948C849594FE
:1000D0008C9446684568D2DF46684568CFDF959CBA
:1000E0008C8C959C8C9C81EF00F0FF0E926E0F0E15
:1000F000936EF10E946E000E966E956E956A8C6AF4
:10010000C8D7F19E056A046AC050C00B0209C06ED0
:10011000C08EC280C150C00B0C09C16E95908C90EE
:1001200010EF02F0006A016A4550D89046B00026F0
:100130000032013246B200260032013246B40026B7
:100140000032013246B600260032013246B800269F
:100150000032013246BA00260032013246BC002687
:100160000032013246BE0026003201322BEF01F090
:100170004C50016A4B5C03E24BC000F00CD0006AAB
:10018000080E4D6E4B3600364C50005CD8B0006EF9
:1001900001364D2EF7D71200036A46500C0FE96E58
:1001A000000E0320EA6E45C04BF00A0E4C6EE0DFF5
:1001B000036A0050F2CF4AF0F29E24DF4ABEF28E6C
:1001C000EF6E010E465C036A0C0FE96E000E032011
:1001D000EA6E45C04BF00A0E4C6ECADF01C04BF010
:1001E0000A0E4C6EC5DF036A0050F2CF4AF0F29E51
:1001F00009DF4ABEF28EEF6E472C14D0010E465C2A
:10020000036A0C0FE96E000E0320EA6EEF50C0087F
:1002100009E1010E465C036A0C0FE96E000E032033
:10022000EA6EEF6835EF01F00FC049F014DF0EC041
:1002300049F011DF0DC049F00EDF0CC049F00BDFB3
:10024000959C8C9C959C8C8C36EF01F043C045F0BE
:100250000A0E466E67D742500124446E44C045F0F2
:10026000030E466E010E476E97D7DED71200086860
:10027000938081B002D0086A11D0938281B203D0FA
:10028000010E086E0BD0938481B403D0020E086E69
:1002900005D0938681B602D0030E086E12000A685C
:1002A000096A0950030828E30950FC0F1AE2040FF9
:1002B0007DEF01F0939E8A9EDADF939E8A8E11D0A5
:1002C000939C8A9CD4DF939C8A8C0BD0939A8A9AB5
:1002D000CEDF939A8A8A05D093988A98C8DF93983C
:1002E0008A88083C01D006D00950040DF350082438
:1002F0000A6E02D0092AD5D71200E824F76AF73629
:10030000150FF66E030EF7220A00F550FA6E08007C
:10031000F550F96EB402C002CC02D802EA6A450E6A
:10032000E96EEF500DE0060E016E006A002EFED75A
:10033000012EFBD77B0E006E002EFED7EF2EF3D7DB
:10034000A9EF01F0ACDF0A3C01D012D00A0E456ED5
:10035000E5D7A5DF0A3C01D00BD00AC00BF00A3C60
:1003600001D002D09CDFFBD70BC00AF00AC001F01D
:1003700014EF02F0F86AD09EB886080EAF6E020E37
:10038000B06EA60EAC6E900EAB6E076A066A1C6865
:10039000226A220E216E246A200E236E2590259259
:1003A0003E6A259425862598259A258CC150C00B38
:1003B0000F09C16E070EB46E13D00C400CFF048001
:1003C000000000001800261D0017001B000F001D74
:1003D000001500170013001B000B000F000D00009C
:1003E000000EF86E030EF76EBA0EF66E0900F550A9
:1003F000006E000A13E00900F550016EE8BE05D05A
:100400000F0BEA6E0900F5CFE9FF01BC090001AC52
:100410000900F5CFEEFF004EE9D7F9D7F86A65D6A7
:10042000426A436A13DF8ED701C041F04150090888
:1004300006E325AC04D042C043F041C042F0415035
:100440000C0802E1426A436A41500F0801E1258C21
:0E04500041500E0801E1259CF9DEE5D70300BE
:020000040030CA
:0E00000007CC3E1E0087A1000FC00FE00F408E
:00000001FF
;PIC18F4550
;CRC=D8B1  CREATED="14-Jul-23 23:45"
