:1000000063EF01F02E002E002E004E4F2044485486
:1000100031310000444F4320534149204455204C86
:10002000494555204448543131004E4F2044533106
:100030003842323000004E687520636F20426163A1
:1000400020686F20000074726F6E67206E676179A0
:10005000207675692000646169207468616E67208C
:100060000000746875632068616E682076646B00B8
:1000700004013F6B3F5107080EE33EBF02D08D9451
:1000800001D08D84969496908D9096908D80D89086
:100090003E373F2BEFD70001120039C43AF438C481
:1000A0003BF43AC43EF4E4DF3BC43EF4E1DF12002B
:1000B0000401396B386B0001F0DF0401396B386BD8
:1000C0000001EBDF0401396B386B0001E6DF04014E
:1000D000396B386B0001E1DF95968C8695968C968E
:1000E00095988C8895988C98959A8C8A959A8C9AE4
:1000F000959E8C8E959E8C9E95948C8495948C94D4
:100100000401396938690001C8DF040139693869B7
:100110000001C3DF959C8C8C959C8C9C9CEF00F01F
:10012000FF0E926E3C0E936EF10E946E000E966E64
:10013000956E956A8C6ABCD7F19E056A046AC050B8
:10014000C00B0209C06EC08EC280C150C00B0C092A
:10015000C16E95908C90AFEF01F026C03EF488DF21
:1001600027C03EF485DF28C03EF482DF29C03EF47C
:100170007FDF95948C8495948C94C8EF00F00401F3
:100180003CC426F0261E3DC427F0271E0001E5D7FB
:100190001200348434C03CF43BC43DF4F0DF200E44
:1001A000006E002EFED700D00000349434C03CF422
:1001B0003BC43DF4E4DF1200349839C43BF4E9DF7A
:1001C0001200040EEA6E390EE96EEF500DE0060ED5
:1001D000016E006A002EFED7012EFBD77B0E006E4B
:1001E000002EFED7EF2EF3D717EF01F034803482C4
:1001F00034943496349A38C439F4DEDF100E006E2D
:10020000002EFED700000C0E0401396F0001D4DF70
:10021000100E006E002EFED70000010E0401396F93
:100220000001CADF0A0E0401396F0001CAD7060EA9
:100230000401396F0001C0DF100E006E002EFED7E2
:100240000000B4EF01F034883AC43BF4A2DF33EF8E
:1002500001F00900F5520CE0F6CF38F4F7CF39F48D
:10026000F5CF3AF4F0D738C4F6FF39C4F7FFF1D729
:100270001200800E0401396F00019EDF360EF66E0B
:10028000000EF76EE6DF900E0401396F000194DF77
:10029000460EF66E000EF76EDCDF880E0401396F35
:1002A00000018ADF560EF66E000EF76ED2DF980E52
:1002B0000401396F000180DF620EF66E000EF76EEA
:1002C000C8DFB5EF01F0F86AD09EB886080EAF6EB1
:1002D000020EB06EA60EAC6E900EAB6E076A066A8A
:1002E0002A68306A220E2F6E326A200E316E3390E9
:1002F0003392C150C00B0F09C16E070EB46E0FD000
:100300000C4008FF168050581408050622909530BE
:100310003010082002209096000000000000000E1F
:10032000F86E030EF76E000EF66E0900F550006EC3
:10033000000A13E00900F550016EE8BE05D00F0B6E
:10034000EA6E0900F5CFE9FF01BC090001AC090024
:10035000F5CFEEFF004EE9D7F9D7F86AE1D6300EB7
:100360000401386F000142D784D7FFD7FDD70300BF
:020000040030CA
:0E00000007CC3E1E0087A1000FC00FE00F408E
:00000001FF
;PIC18F4550
;CRC=8413  CREATED="20-Jun-23 14:56"
