:10000000B1EF01F02E004E4F204448543131000032
:10001000444F4320534149204455204C49455520E5
:100020004448543131004E4F20445331384232302D
:1000300000004F6A4F5007080EE34EBE02D08D9469
:1000400001D08D84969496908D9096908D80D890C6
:100050004E364F2AEFD712003BC03CF03AC03DF07D
:100060003CC04EF0E6DF3DC04EF0E3DF12003B6ADD
:100070003A6AF2DF3B6A3A6AEFDF3B6A3A6AECDFE0
:100080003B6A3A6AE9DF95968C8695968C969598A8
:100090008C8895988C98959A8C8A959A8C9A959E2E
:1000A0008C8E959E8C9E95948C8495948C943B68B4
:1000B0003A68D2DF3B683A68CFDF959C8C8C959C80
:1000C0008C9C6FEF00F0FF0E926E3C0E936EF10E63
:1000D000946E000E966E956E956A8C6AC8D7F19EE6
:1000E000056A046AC050C00B0209C06EC08EC2808F
:1000F000C150C00B0C09C16E95908C90F7EF01F0C8
:100100004AC04EF096DF4BC04EF093DF4CC04EF02D
:1001100090DF4DC04EF08DDF95988C8895988C9827
:10012000A3EF00F043C046F042C047F045C048F09E
:1001300044C049F046C04AF047C04BF048C04CF0BC
:1001400049C04DF0DDD712003CC03EF03DC03FF04D
:100150003BC041F03AC040F03FC043F03EC042F0E7
:1001600041C045F040C044F0DDDF1200306A356A1E
:10017000346A336A326A376A366A396A386A120010
:1001800030501F0820E3D89032343B6E33343C6E3D
:1001900034343D6E35343E6E010E3B24326E000E1B
:1001A0003C20336E000E3D20346E000E3E20356E36
:1001B00035C03DF034C03CF033C03BF032C03AF0C3
:1001C000C3DF302A14D030503F0810E3D8903236C5
:1001D00033363436353635C03DF034C03CF033C0AC
:1001E0003BF032C03AF0B0DF302A01D0BFDF02EF7F
:1001F00002F030501F081BE3D89035303E6E34308B
:100200003D6E33303C6E3230326E3CC033F03DC018
:1002100034F0800E3E24356E35C03DF034C03CF0E5
:1002200033C03BF032C03AF08FDF302A14D0305068
:100230003F0810E3D890353234323332323235C091
:100240003DF034C03CF033C03BF032C03AF07CDFCC
:10025000302A01D08BDF06EF02F030500F0821E387
:10026000D89036343A6E37343B6E010E3A24366EEF
:10027000000E3B20376ED89038343A6E39343B6EDE
:10028000010E3A24386E000E3B20396E37C043F021
:1002900036C042F039C045F038C044F043DF302A60
:1002A00015D030501F0811E3D89036363736D89025
:1002B0003836393637C043F036C042F039C045F0E1
:1002C00038C044F02FDF302A01D050DF0AEF02F0AF
:1002D00030500F081BE3D89037303B6E3630366E07
:1002E000800E3B24376ED89039303B6E3830386EF4
:1002F000800E3B24396E37C043F036C042F039C01F
:1003000045F038C044F00EDF302A15D030501F08B9
:1003100011E3D89037323632D8903932383237C07C
:1003200043F036C042F039C045F038C044F0FADE40
:10033000302A01D01BDF0EEF02F0EA6A3A0EE96EB6
:10034000EF500DE0060E016E006A002EFED7012E62
:10035000FBD77B0E006E002EFED7EF2EF3D716EFE5
:1003600002F0F86AD09EB886080EAF6E020EB06E2C
:10037000A60EAC6E900EAB6E076A066A2A682F90C6
:100380002F92C150C00B0F09C16E070EB46E0FD073
:100390000C4008FF1680303315031602219091306F
:1003A0003010082002209096000000000000000E8F
:1003B000F86E030EF76E900EF66E0900F550006EA3
:1003C000000A13E00900F550016EE8BE05D00F0BDE
:1003D000EA6E0900F5CFE9FF01BC090001AC090094
:1003E000F5CFEEFF004EE9D7F9D7F86A6CD6316A3F
:1003F000315205E13D6A3C6A3B6A3A6AA5DE312C1E
:1004000001D0BED631500208D8B4F3D6315003081B
:10041000D8B423D731500408D8B45AD7312A315030
:10042000040801E2316A640E3A6E87D7E1D703000F
:020000040030CA
:0E00000007CC3E1E0087A1000FC00FE00F408E
:00000001FF
;PIC18F4550
;CRC=B65E  CREATED="22-Mar-22 23:51"
