:100000002DEF01F02E002E002E004E4F20444854BC
:1000100031310000444F4320534149204455204C86
:10002000494555204448543131004E4F2044533106
:10003000384232300000576A575007080EE356BE68
:1000400002D08D9401D08D84969496908D90969048
:100050008D80D8905636572AEFD7120035C036F02B
:1000600034C037F036C056F0E6DF37C056F0E3DF75
:100070001200356A346AF2DF356A346AEFDF356AB6
:10008000346AECDF356A346AE9DF95968C8695969A
:100090008C9695988C8895988C98959A8C8A959A38
:1000A0008C9A959E8C8E959E8C9E95948C8495941E
:1000B0008C9435683468D2DF35683468CFDF959C1E
:1000C0008C8C959C8C9C71EF00F0FF0E926E3C0E18
:1000D000936EF10E946E000E966E956E956A8C6A14
:1000E000C8D7F19E056A046AC050C00B0209C06EF1
:1000F000C08EC280C150C00B0C09C16E95908C900F
:1001000079EF01F052C056F096DF53C056F093DFFE
:1001100054C056F090DF55C056F08DDF95988C880E
:1001200095988C98A5EF00F04BC04EF04AC04FF068
:100130004DC050F04CC051F04EC052F04FC053F083
:1001400050C054F051C055F0DDD7FFEF00F0EA6A1F
:100150004B0EE96EEF500DE0060E016E006A002EA8
:10016000FED7012EFBD77B0E006E002EFED7EF2EA2
:10017000F3D712003F6A3E6A416A406A436A426AA4
:10018000456A446A476A466A496A486A3D6A3C6AFF
:100190003B6A3A6A3D525FE13C525DE13B525BE1B2
:1001A0003A500F0858E3800E3F6E3E6A416A010ED6
:1001B000406E3DC039F03CC038F03BC037F03AC02B
:1001C00036F0395237E1385235E1375233E13650A3
:1001D0000F0830E33E504210466E3F504310476ECA
:1001E00040504410486E41504510496E47C04BF096
:1001F00046C04AF049C04DF048C04CF095D735C0D4
:100200004AF04A2A4A06D8B403D04B68A0DFFAD78E
:1002100034C04BF09CDFD8903F323E32D89040360D
:100220004136010E3626D8B0372AD8B4382AD8B489
:10023000392AC7D747C043F046C042F049C045F00D
:1002400048C044F0010E3A26D8B03B2AD8B43C2A24
:10025000D8B43D2A9FD77DEF01F0F86AD09EB886CA
:10026000080EAF6E020EB06EA60EAC6E900EAB6EA8
:10027000076A066A2A68306A220E2F6E326A200EDA
:10028000316E33903392C150C00B0F09C16E070E0F
:10029000B46E0FD00C4008FF1680505814080506A5
:1002A0002290953030100820022090960000000027
:1002B0000000000EF86E020EF76E940EF66E090046
:1002C000F550006E000A13E00900F550016EE8BE1B
:1002D00005D00F0BEA6E0900F5CFE9FF01BC09005C
:1002E00001AC0900F5CFEEFF004EE9D7F9D7F86A67
:0E02F000ECD6356A140E346E3DD7FBD70300F2
:020000040030CA
:0E00000007CC3E1E0087A1000FC00FE00F408E
:00000001FF
;PIC18F4550
;CRC=E015  CREATED="10-Jun-23 12:57"
