:10000000CBEF00F02E002E002E004E4F204448541F
:1000100031310000444F4320534149204455204C86
:10002000494555204448543131004E4F2044533106
:100030003842323000003B6A3B5007080EE33ABEBC
:1000400002D08D9401D08D84969496908D90969048
:100050008D80D8903A363B2AEFD7120035C036F063
:1000600034C037F036C03AF0E6DF37C03AF0E3DFAD
:100070001200356A346AF2DF356A346AEFDF356AB6
:10008000346AECDF356A346AE9DF95968C8695969A
:100090008C9695988C8895988C98959A8C8A959A38
:1000A0008C9A959E8C8E959E8C9E95948C8495941E
:1000B0008C9435683468D2DF35683468CFDF959C1E
:1000C0008C8C959C8C9C71EF00F0FF0E926E3C0E18
:1000D000936EF10E946E000E966E956E956A8C6A14
:1000E000C8D7F19E056A046AC050C00B0209C06EF1
:1000F000C08EC280C150C00B0C09C16E95908C900F
:1001000017EF01F036C03AF096DF37C03AF093DFD0
:1001100038C03AF090DF39C03AF08DDF95988C887E
:1001200095988C981200EA6A370EE96EEF500DE050
:10013000060E016E006A002EFED7012EFBD77B0E45
:10014000006E002EFED7EF2EF3D71200366A376A04
:10015000386A396AD7DF35C036F0362A3606D8B461
:1001600003D03768E0DFFAD734C037F0DCDF366A17
:10017000376A386A0F0E396EC5DF35C036F0362A59
:100180003606D8B403D03768CEDFFAD734C037F09C
:10019000CADF1CEF01F0F86AD09EB886080EAF6E79
:1001A000020EB06EA60EAC6E900EAB6E076A066ABB
:1001B0002A68306A220E2F6E326A200E316E33901A
:1001C0003392C150C00B0F09C16E070EB46E0FD031
:1001D0000C4008FF168050581408050622909530F0
:1001E0003010082002209096000000000000000E51
:1001F000F86E010EF76ED00EF66E0900F550006E27
:10020000000A13E00900F550016EE8BE05D00F0B9F
:10021000EA6E0900F5CFE9FF01BC090001AC090055
:10022000F5CFEEFF004EE9D7F9D7F86A4ED7010EA9
:0C023000356EF40E346E8AD7FAD7030046
:020000040030CA
:0E00000007CC3E1E0087A1000FC00FE00F408E
:00000001FF
;PIC18F4550
;CRC=579F  CREATED="09-Jun-23 18:16"
