:10000000A5EF09F0F76A140FF66E000EF72209004B
:10001000F5501200C0F9A4B0999282F880908883BC
:10002000C6A1868EF76A340FF66E000EF72209001D
:10003000F550120080C094D4F76A480FF66E000E97
:10004000F7220900F5501200000102040305010225
:100050002003070306060204030306060203030542
:10006000070307202007070606030305000606040A
:10007000030501010720200700060204030500060E
:1000800002030305F76A940FF66E000EF7220900CB
:10009000F5501200070F1F1F1F1F1F1F1F1F1F00DC
:1000A000000000001C1E1F1F1F1F1F1F000000005C
:1000B000001F1F1F1F1F1F1F1F1F0F071F1F1F1F97
:1000C0001F1F1E1C1F1F1F0000001F1F1F1F1F1FA1
:1000D0001F1F1F1F2E002E002E004E4F204448547D
:1000E00031310000444F4320534149204455204CB6
:1000F000494555204448543131004E4F2044533136
:100100003842323000004F4E20004F4646004C4DE2
:100110003335412042555A5A3A202020204C4D3345
:1001200035420000486967683A004C6F773A000032
:100130005F6A5F5007080EE35EBE02D08D9401D067
:100140008D84969496908D9096908D80D8905E3602
:100150005F2AEFD7120042C043F041C044F043C0D1
:100160005EF0E6DF44C05EF0E3DF1200426A416AFF
:10017000F2DF426A416AEFDF426A416AECDF426ABB
:10018000416AE9DF95968C8695968C9695988C8831
:1001900095988C98959A8C8A959A8C9A959E8C8E27
:1001A000959E8C9E95948C8495948C94426841681D
:1001B000D2DF42684168CFDF959C8C8C959C8C9CEB
:1001C000EEEF00F0FF0E926E3C0E936EF10E946E09
:1001D000000E966E956E956A8C6AC8D7F19E056A78
:1001E000046AC050C00B0209C06EC08EC280C150EC
:1001F000C00B0C09C16E95908C90F8EF09F026C0E9
:100200005EF096DF27C05EF093DF28C05EF090DFDF
:1002100029C05EF08DDF95948C8495948C9418EFB2
:1002200001F05750286E281E58C029F0291EE7D724
:1002300012002A802AC057F056C058F0F2DF200E74
:10024000006E002EFED700D000002A902AC057F082
:1002500056C058F0E6DF12002A9455C056F0E9DF88
:100260001200EA6A410EE96EEF500DE0060E016ED3
:10027000006A002EFED7012EFBD77B0E006E002EEB
:10028000FED7EF2EF3D712002A902A922A842A96BC
:10029000380E556EE1DF420E006E002EFED70000D4
:1002A0000C0E556ED9DF420E006E002EFED70000F8
:1002B000010E556ED1DF020E416ED3DF060E556E74
:1002C000CBDF420E006E002EFED70000FAEF09F0E1
:1002D0002A8452C056F0ADDF1200400E556EBCDFCE
:1002E000416A41503F080DE3036A4150F2CF42F0AA
:1002F000F29EC8DE42BEF28E426E526EE9DF412AA5
:10030000F0D7FCEF09F0036A5250F2CF54F0F29E9E
:1003100089DE54BEF28E5324546E556E9DDF12005A
:100320000900F5520CE0F6CF49F0F7CF4AF0F5CFCF
:1003300052F0CEDF49C0F6FF4AC0F7FFF1D71200F6
:10034000526A110E536EDFDF0A0EF66E010EF76E63
:10035000E7DF1200016A026A006A036A515002E193
:10036000505018E0100E526ED8904E364F36003670
:1003700003365150035C02E15050005C07E35050DB
:10038000005ED8A003065150035ED88001360236C5
:10039000522EEAD71200030E526E060E536EB3DFD2
:1003A00030C04FF02FC04EF0516A0A0E506ED2DFAF
:1003B00002C042F001C041F002C04FF001C04EF057
:1003C000516A0A0E506EC6DF0050300F416E000EAB
:1003D0000320426E41C052F07BDF30C04FF02FC08F
:1003E0004EF0516A0A0E506EB5DF0050300F416E6C
:1003F000000E0320426E41C052F06ADF1200030E6D
:10040000526E0F0E536E7FDF32C04FF031C04EF090
:10041000516A0A0E506E9EDF02C042F001C041F0E8
:1004200002C04FF001C04EF0516A0A0E506E92DFCA
:100430000050300F416E000E0320426E41C052F05A
:1004400047DF32C04FF031C04EF0516A0A0E506E95
:1004500081DF0050300F416E000E0320426E41C01C
:1004600052F036DF12008E0E006E4EC001F04DC00D
:1004700002F0036A015209E102C001F0026A080EAB
:10048000005E015202E1006A08D0D89001BE04D09B
:10049000023601360006F9D7019E1200800ED8B24E
:1004A000521A576A586A4EC056F05250561A4D505A
:1004B000D8B4DCD0556E006E5150D8B4E0D0555E43
:1004C000D8B481D03DE352C05BF05B8E53C05AF08C
:1004D00054C059F0586AD8905B325A325932583267
:1004E000552EF8D756AE03D05780DDD05790559093
:1004F0005788EA6A500EE96EE9D0579856BE0AD07E
:1005000055A013D05B325A3259325832002AD8B42F
:10051000C5D00BD05BBE0CD0D890583659365A3661
:100520005B360006D8B4BAD0F5D7578C6BD0579C41
:100530004EC056F04EAE02D05B8EA9D05B9EA7D0C7
:1005400051C055F051C000F04D50555E4EC05BF0AB
:100550005B8E4FC05AF050C059F0586AD8905B3249
:100560005A3259325832552EF8D756AE03D05782E8
:100570009AD057925590578AEA6A540EE96EA6D0DF
:10058000579A56BE0AD055A013D05B325A32593210
:100590005832002AD8B482D00BD05BBE0CD0D89091
:1005A000583659365A365B360006D8B477D0F5D768
:1005B000578E28D0579E52C056F052AE02D05B8E56
:1005C00066D05B9E64D052C05BF05B8E53C05AF025
:1005D00054C059F056AE04D05B9E578464D05794F3
:1005E000586A5590EA6A500EE96E70D056BE1CD01B
:1005F0004EC056F055A006D05B325A3259325832AE
:10060000002A4CE058AE0BD0592A09E15A2A07E1DA
:100610005B2A05E15B325A325932002A3FE057BC6F
:1006200086D757BEC7D71CD0800E5B1A5BAE04D0EE
:100630003AD052C056F00AD04EC056F05B5206E196
:100640005A5204E1595202E1006A21D05BBE08D03F
:10065000D890583659365A365B36002EF7D71ED00A
:1006600056AE02D05B8E13D05B9E11D051C000F00D
:1006700052C05BF053C05AF054C059F008D04DC07E
:1006800000F04EC05BF04FC05AF050C059F05BC054
:1006900001F05AC002F059C003F034D0006A016A78
:1006A000026A036A2FD0586A591E5A1E5B1E581ED2
:1006B000582A05E1592A03E15A2A01E15B2A57B079
:1006C00015D757B256D757B48AD7B3D7EF50592654
:1006D00005E35A2A03E15B2AD8B45580ED52EF5066
:1006E0005A2603E35B2AD8B45580ED52EF50EFBE93
:1006F00001D0800A5B26D8B0558057B8FED657BACD
:100700003FD774D712004D50D8B4A5D0596E515070
:10071000D8B4A1D0595E05E37F0E5926D8B09BD03E
:1007200006D0810E595ED8A096D0D8B494D059C0C6
:1007300000F0016A026A036A586A4EC057F0578E89
:100740004FC056F050C055F0190E596E5450555EBA
:100750000DE2010E565E0AE2575E08E2585E06E2BE
:10076000582A572A562A5450552628D05350565E98
:1007700012E2010E575E0FE2585E0DE2582A572A28
:10078000535056265450552619E3562A17E1572A36
:1007900015E1582A13D052508009575E0EE2010E1F
:1007A000585E0BE2582A525080095726535056265D
:1007B000E9E3572AE7E1582AE5D70380592E01D00B
:1007C0000BD0D8905536563657365836D890033613
:1007D000023601365A36BAD75AA006D0D89001321E
:1007E000023203325A3202D0000635E05ABE1ED021
:1007F000D89055365636573658365450555E07E21F
:10080000010E565E04E2575E02E2585E1AE3535050
:10081000565E05E2010E575E02E2585E12E3525048
:100820008009575E03E2010E585E0BE3032A09E1DB
:10083000022A07E1012A05E1002A0DE00132023215
:1008400003324EC059F05250591A59AE02D0018E9F
:1008500006D0019E04D0006A016A026A036A12008F
:100860004734006E0036FC0E0016C250C30B001059
:10087000C26E200E006E002EFED700D000004B6A24
:100880004A6A496A486A4C6A46504C5C26E2C2820F
:10089000C2B2FED7C4CF03F0C3CF4DF0C4CF4EF0E9
:1008A000E2DDD8924BC050F04AC04FF049C04EF044
:1008B00048C04DF003C054F002C053F001C052F0E4
:1008C00000C051F0EBDD03C04BF002C04AF001C0A4
:1008D00049F000C048F04C2AD7D74E6A46C04DF0C8
:1008E000C2DD4BC050F04AC04FF049C04EF048C086
:1008F0004DF003C054F002C053F001C052F000C0EC
:1009000051F001DF03C04BF002C04AF001C049F0D2
:1009100000C048F048C000F049C001F04AC002F0F1
:100920004BC003F012008E0E006E4A50005E4BC0AA
:1009300002F04CC001F0028E005209E0D890025241
:1009400002E1015204E002320132002EF7D74BAE31
:1009500005D0011E021E012AD8B4022A12004A50F4
:10096000D8B471D0006E4E50D8B46DD0002604E3D8
:10097000810E002668E204D07F0E005E64E363E02F
:100980004BC052F04F50521A4B8E4F8E4D50510269
:10099000F4CF54F04C505002F4CF03F0F3CF53F0A7
:1009A0005102F3505426F4505322000E03224D50AE
:1009B0005002F3505426F4505322000E026A0322D0
:1009C00002224B505102F3505326F4500322000EE2
:1009D00002224B505002F3500326F4500222000E24
:1009E000016A01224D504F02F3505326F450032266
:1009F000000E022201224C504F02F3500326F45005
:100A00000222000E01224B504F02F3500226F450F6
:100A10000122002A01BE05D05336033602360136C4
:100A20000006000E53AE0AD0032A02220122015012
:100A300005E1025003E1035001E1002A52BE018E9C
:100A400052AE019E04D0006A016A026A036A72EF24
:100A500005F049C050F048C04FF047C04EF046C0C6
:100A60004DF0546A536A526A7F0E516E4CDE03C0D9
:100A70004DF002C04CF001C04BF000C04AF053DF13
:100A800002C02CF001C02BF02CC04EF02BC04DF05A
:100A9000EADCD88249C050F048C04FF047C04EF061
:100AA00046C04DF003C054F002C053F001C052F0F4
:100AB00000C051F0F3DC03C049F002C048F001C0AF
:100AC00047F000C046F049C04DF048C04CF047C068
:100AD0004BF046C04AF0516A506A480E4F6E850E80
:100AE0004E6E3DD703C049F002C048F001C047F048
:100AF00000C046F049C050F048C04FF047C04EF02B
:100B000046C04DF0546A536A526A7F0E516EFBDD47
:100B100003C04DF002C04CF001C04BF000C04AF0E1
:100B200002DF02C02EF001C02DF0120041C046F0DD
:100B3000476A96DE03C045F002C044F001C043F0AE
:100B400000C042F045C050F044C04FF043C04EF0EA
:100B500042C04DF0AA0E546EF10E536E020E526E4C
:100B6000800E516ED0DD03C045F002C044F001C0DC
:100B700043F000C042F045C049F044C048F043C0D3
:100B800047F042C046F065DF2CC036F02BC035F090
:100B90002EC038F02DC037F028EF0AF0006A016A45
:100BA0005150D89052B000260032013252B2002685
:100BB0000032013252B400260032013252B6002611
:100BC0000032013252B800260032013252BA0026F9
:100BD0000032013252BC00260032013252BE0026E1
:100BE000003201320EEF06F04EC052F04FC053F00B
:100BF00083EC01F0506A5050050827E35050030879
:100C000008E1010E4E24516E526E4FC053F083EC3A
:100C100001F04DC051F0060E526EC0D70150526A1D
:100C2000516E036A50505124016E525003220150FC
:100C3000F2CF51F0F29E1CEC00F051BEF28E516EDC
:100C4000526E68EC01F0502AD6D712004CC052F018
:100C50004DC053F083EC01F04E6A4E50050811E38D
:100C60004E50030808E1010E4C244F6E526E4DC0E9
:100C700053F083EC01F0200E526E68EC01F04E2A26
:100C8000ECD785EF06F047C052F048C053F083EC34
:100C900001F046C04FF045C04EF0516A0A0E506E4A
:100CA000AAEC01F002C04DF001C04CF002C04FF0C0
:100CB00001C04EF0516A0A0E506EAAEC01F000C05D
:100CC0004AF046C04FF045C04EF0516A0A0E506ED1
:100CD000AAEC01F000C04BF04AC04DF047C04EF006
:100CE00048C04FF081DF030E48244C6E4BC04DF0DE
:100CF00047C04EF04F6E78DF4A5207E1495205E097
:100D000047C04CF048C04DF0A1D712004B50016ACB
:100D10004A5C03E24AC000F00CD0006A080E4C6E38
:100D20004A3600364B50005CD8B0006E01364C2E6F
:100D3000F7D7120047C052F048C053F083EC01F0DF
:100D4000D40EF66E000EF76E90EC01F046C04AF03D
:100D50000A0E4B6EDBDF01C04AF00A0E4B6ED6DF87
:100D6000300E0024496E526E68EC01F046C04AF025
:100D70000A0E4B6ECBDF300E0024496E526E68ECCB
:100D800001F012003550395C03E136503A5C10E056
:100D900036C03AF035C039F043520AE036C046F06A
:100DA00035C045F041C047F042C048F0496A6BDFAA
:100DB000445209E0060E4224456E37C046F041C059
:100DC00047F0486EB7DF2EEF0AF0036A4450080F71
:100DD000E96E000E0320EA6E43C04AF00A0E4B6E25
:100DE00095DF036A0050F2CF48F0F29E02EC00F06B
:100DF00048BEF28EEF6E010E445C036A080FE96E86
:100E0000000E0320EA6E43C04AF00A0E4B6E7EDFEE
:100E100001C04AF00A0E4B6E79DF036A0050F2CF30
:100E200048F0F29E02EC00F048BEF28EEF6E452CC8
:100E300014D0010E445C036A080FE96E000E032013
:100E4000EA6EEF50C00809E1010E445C036A080F26
:100E5000E96E000E0320EA6EEF6812000BC05EF030
:100E600098EC00F00AC05EF098EC00F009C05EF06B
:100E700098EC00F008C05EF098EC00F0959C8C9C1B
:100E8000959C8C8C1200425207E035C043F041C063
:100E900044F0456A9ADFE2DF32EF0AF041C046F0E3
:100EA000010E476EDDDC03C045F002C044F001C016
:100EB00043F000C042F045C050F044C04FF043C082
:100EC0004EF042C04DF0AA0E546EF10E536E020E5B
:100ED000526E800E516E17DC03C045F002C044F024
:100EE00001C043F000C042F045C049F044C048F0A2
:100EF00043C047F042C046F0ACDD2CC03CF02BC0F4
:100F00003BF02EC03EF02DC03DF035EF0AF03B50D7
:100F10003F5C03E13C50405C10E03CC040F03BC013
:100F20003FF043520AE03CC046F03BC045F041C0B0
:100F300047F042C048F0496AA6DE445209E0060E76
:100F40004224456E3DC046F041C047F0486EF2DE97
:100F50003DEF0AF0425207E03BC043F041C044F08D
:100F6000456A33DF7BDF42EF0AF004C04AF005C078
:100F70004BF04BC05EF098EC00F04AC05EF098EC8D
:100F800000F095968C8695968C9612000580EDDF84
:100F900012000594EADF12000590E7DF12000584D5
:100FA000E4DF12005AC05EF098EC00F05BC05EF027
:100FB00098EC00F05CC05EF098EC00F05DC05EF074
:100FC00098EC00F095988C8895988C98F9EF07F03C
:100FD00053C056F052C057F055C058F054C059F0A5
:100FE00056C05AF057C05BF058C05CF059C05DF075
:100FF000D9D70CEF08F04CC04EF04DC04FF04BC0AD
:1010000051F04AC050F04FC053F04EC052F051C0A2
:1010100055F050C054F0DCD712003050475C0BE361
:1010200003E146502F5C07E233B005D0338033B282
:10103000ADDFAFDF17D04750305C0AE303E12F503C
:10104000465C06E233A004D0339033B2A5DF0AD069
:101050004750325C07E303E13150465C03E233B0B2
:1010600001D09DDF4D6A0F0E4C6EF00E4B6E4A6A3A
:10107000C2DFE2EF08F03050475C12E303E1465074
:101080002F5C0EE23050495C0BE303E148502F5CCB
:1010900007E233B005D0338033B278DF7ADF25D072
:1010A0004750305C11E303E12F50465C0DE249509C
:1010B000305C0AE303E12F50485C06E233A004D021
:1010C000339033B269DF11D04750325C0EE303E155
:1010D0003150465C0AE24950325C07E303E131508B
:1010E000485C03E233B001D05ADF4D6A0F0E4C6EFC
:1010F000F00E4B6E4A6A7FDFE2EF08F03050475C3B
:1011000004E30AE146502F5C07E33050495C0BE3EF
:1011100003E148502F5C07E233B005D0338033B28F
:1011200035DF37DF25D04750305C11E303E12F5026
:10113000465C0DE24950305C0AE303E12F50485C05
:1011400006E233A004D0339033B226DF11D04750EB
:10115000325C04E30AE13150465C07E34950325CFB
:1011600007E303E13150485C03E233B001D017DFFD
:101170004D6A0F0E4C6EF00E4B6E4A6A3CDFE2EF8A
:1011800008F0452C06D042C047F041C046F045D794
:1011900019D0455002080AE142C047F041C046F06C
:1011A00044C049F043C048F066D70CD0455003080E
:1011B00009E142C047F041C046F044C049F043C095
:1011C00048F09CD74DEF0AF0030E445E09E3EA6A4B
:1011D000440EE96EEF5004E001D000D0EF2EFDD7B1
:1011E0001200938481B41BD0062AD8B4072A020EB9
:1011F000436EF90E446EE8DF432EFBD74250075C86
:101200000AE303E14150065C06E3076A066A010E41
:10121000016E07D003D0000E016E03D002D0000E85
:10122000016E24EF09F0526A110E536E83EC01F047
:10123000060EF66E010EF76E90EC01F02EEF09F03F
:10124000426A320E416ECDD701520CE0337233A2A6
:1012500002D0E9D703D0A0EC01F09EDEC80E416EAB
:1012600031EC01F04EEF0AF0938A81BA1BD0062AC6
:10127000D8B4072A020E436EF90E446EA5DF432E42
:10128000FBD74250075C0AE303E14150065C06E3EA
:10129000076A066A010E016E07D003D0000E016EC8
:1012A00003D002D0000E016E5AEF09F0426A320EEE
:1012B000416EDAD701520EE0305207E12F50260876
:1012C00004E32F2AD8B4302A03D0306A220E2F6EBE
:1012D000CBEC01F04FEF0AF0938881B81BD0062ABF
:1012E000D8B4072A020E436EF90E446E6DDF432E0A
:1012F000FBD74250075C0AE303E14150065C06E37A
:10130000076A066A010E016E07D003D0000E016E57
:1013100003D002D0000E016E92EF09F0426A320E45
:10132000416EDAD701520FE0325203E131501B080F
:1013300005E23150D8B43206310603D0326A200EAD
:10134000316EFFEC01F050EF0AF0F86AD09EB886DB
:10135000080EAF6E020EB06EA60EAC6E900EAB6EA7
:10136000076A066A2A68306A220E2F6E326A200ED9
:10137000316E33903392320E346E3A6A396A406A73
:101380003F6AC150C00B0F09C16E070EB46E0FD07B
:101390000C4008FF1680102213062204229095307C
:1013A0003010082002209096000000000000000E7F
:1013B000F86E130EF76E900EF66E0900F550006E83
:1013C000000A13E00900F550016EE8BE05D00F0BCE
:1013D000EA6E0900F5CFE9FF01BC090001AC090084
:1013E000F5CFEEFF004EE9D7F9D7F86AE2EF00F04B
:1013F00044EF01F06DEF01F0526A536A83EC01F0A3
:101400000E0EF66E010EF76E90EC01F03392A0EC2A
:1014100001F0030E526E536A83EC01F0240EF66E57
:10142000010EF76E90EC01F0030E526E0A0E536E31
:1014300083EC01F02A0EF66E010EF76E90EC01F0CF
:10144000CBEC01F0FFEC01F034C041F096EF05F079
:10145000010E416E426A436E446E94D4010E416E99
:10146000426E11D534C041F019D5010E416E0A0EFD
:10147000426E010E436E446E4AD5030E416E010E5C
:10148000426E68D536C042F035C041F03CC044F0F1
:101490003BC043F0030E456E74D6D2D607D73ED775
:0414A000D3D703009B
:020000040030CA
:0E00000007CC3E1E0087A1000FC00FE00F408E
:00000001FF
;PIC18F4550
;CRC=6105  CREATED="02-Jun-22 23:20"
