:04000000F0EF05F028
:08000800046ED8CF05F0E0CF33
:1000100006F00001E9CF0CF0EACF07F0E1CF08F0DD
:10002000E2CF09F0D9CF0AF0DACF0BF0F3CF12F01C
:10003000F4CF13F0FACF14F000C00EF001C00FF0AF
:1000400002C010F003C011F0A0A22AEF00F0A1B28C
:1000500089EF00F00EC000F00FC001F010C002F0F8
:1000600011C003F00CC0E9FF07C0EAFF078E08C00B
:10007000E1FF09C0E2FF0AC0D9FF0BC0DAFF12C0DE
:10008000F3FF13C0F4FF14C0FAFF045006C0E0FFF2
:1000900005C0D8FF1000F2CF0DF0F29EF76AB00F46
:1000A000F66E000EF7220900F5500DBEF28E12001A
:1000B000C0F9A4B0999282F880908883C6A1868EF8
:1000C000F2CF0DF0F29EF76ADA0FF66E000EF7220D
:1000D0000900F5500DBEF28E12007FBFDFEFF7FB77
:1000E000FDFEFF002E004E4F2044485431310000E9
:1000F000444F4320534149204455204C4945552005
:100100004448543131004E4F20445331384232304C
:100110000000432A0B0EB36EDC0EB26EA1922AEFE2
:1001200000F04E6A4E5007080EE34DBE02D08D948B
:1001300001D08D84969496908D9096908D80D890D5
:100140004D364E2AEFD7120048C049F047C04AF05A
:1001500049C04DF0E6DF4AC04DF0E3DF1200486AC7
:10016000476AF2DF486A476AEFDF486A476AECDFAE
:10017000486A476AE9DF95968C8695968C9695989D
:100180008C8895988C98959A8C8A959A8C9A959E3D
:100190008C8E959E8C9E95948C8495948C944868B6
:1001A0004768D2DF48684768CFDF959C8C8C959C68
:1001B0008C9CE7EF00F0FF0E926E3C0E936EF10EFA
:1001C000946E000E966E956E956A8C6AC8D7F19EF5
:1001D000176A166AC050C00B0209C06EC08EC2807A
:1001E000C150C00B0C09C16E95908C903BEF06F08E
:1001F000080E016E050E006E002EFED78A929392B5
:10020000060E006E002EFED74A368A90D8B0938034
:10021000D8A09390938281A2FED7012EEBD7050E32
:10022000006E002EFED78A92939200009380060EF5
:10023000006E002EFED7060E006E002EFED79382B3
:1002400081A2FED7016A060E006E002EFED781B095
:1002500001808A9293928A9093901200080E4C6EBD
:1002600000C04DF09380060E006E002EFED79382E4
:1002700081A2FED781B0D88081A0D8900136050E2A
:10028000006E002EFED793928A924C2EEBD793806D
:10029000060E006E002EFED78A904D50D8A4939083
:1002A0000000938281A2FED7050E006E002EFED7BD
:1002B0008A929392060E006E002EFED78A9093903B
:1002C00012009380050E006E002EFED79382060E5C
:1002D000006E002EFED78A909390050E006E002EC1
:1002E000FED78A929392D00E4A6E82DF4A6A80DFEE
:1002F0009380050E006E002EFED79382060E006ED0
:10030000002EFED781A2FED78A909390050E006E34
:10031000002EFED78A929392D10E4A6E69DF486A08
:100320004750485C0EE2036A48502F0FE96E000EFA
:100330000320EA6E010E006E91DF01C0EFFF482A34
:10034000EFD7006A8BDF01C048F0939000009382E2
:1003500081A2FED7050E006E002EFED700D0000051
:100360009380050E006E002EFED712009380050EBE
:10037000006E002EFED79382060E006E002EFED772
:100380008A909390050E006E002EFED78A9293926B
:10039000D00E4A6E2DDF4A6A2BDF486A48500808A3
:1003A0001DE347520DE0036A4850260FE96E000E28
:1003B0000320EA6EEFCF49F049C04AF019DF0CD0B4
:1003C000036A48502F0FE96E000E0320EA6EEFCF4C
:1003D00049F049C04AF00CDF482AE0D7939000006A
:1003E000938281A2FED7050E006E002EFED700D0AC
:1003F00000009380050E006E002EFED709EF02F07C
:10040000090E476E5EDF37502E5C03E0010E476E2B
:10041000ADD749EF06F0452C01D003D04550040874
:1004200002E11F681E684550020806E045500508B5
:1004300003E04550070802E122682168455003089F
:1004400003E04550060802E125682468D0EF02F079
:10045000036A49501E0FE96E000E0320EA6E4850F1
:100460000F0B036AF2CF4DF0F29E15DE4DBEF28EF9
:10047000EF6E010E4924036A1E0FE96E000E032081
:10048000EA6E4838006E0F0E00160050036AF2CF75
:100490004DF0F29E00DE4DBEF28EEF6E4A2C14D06F
:1004A000010E4924036A1E0FE96E000E0320EA6E56
:1004B000EF50C00809E1010E4924036A1E0FE96EDE
:1004C000000E0320EA6EEF6812002FC048F0496A60
:1004D0004A6ABEDF30C048F0030E496E4A6AB8DF90
:1004E00031C048F0060E496E010E4A6EB1DF236836
:1004F000120035C048F0496A4A6AAADF34C048F0A1
:10050000030E496E4A6AA4DF33C048F0060E496EF6
:10051000010E4A6E9DDF1200870E256E8B0E246E33
:10052000E30E236E2268036A3250F2CF48F0F29E47
:10053000B2DD48BEF28E216E20681F681E68120070
:1005400045520BE14452D8B4C0DF442C01D0D1DF76
:1005500044500208D8B4E0DF12D045BE03D0455065
:10056000030802E3B2DF0BD045BE03D045500608B6
:1005700002E3BFDF04D045500708D8B4CDDF120036
:1005800045520EE0435208E1938A81AA05D0938632
:1005900081A602D040D704D04350050801E1D0DF46
:1005A0004FEF06F0030E4B5E09E3EA6A4B0EE96E6D
:1005B000EF5004E001D000D0EF2EFDD7120093845D
:1005C00081B41BD0182AD8B4192A020E496EF90E2C
:1005D0004B6EE8DF492EFBD74850195C0AE303E174
:1005E0004750185C06E3196A186A010E016E07D0BD
:1005F00003D0000E016E03D002D0000E016E17EF83
:1006000003F01DC04DF08DDD1CC04DF08ADD1BC018
:100610004DF087DD1AC04DF084DD959C8C9C959C37
:100620008C8C32EF03F0486A320E476EC8D7015205
:1006300019E0442A4450020801E2446A81DF036A57
:100640004450F2CF47F0F29E26DD47BEF28E1A6E7E
:10065000036A4550F2CF47F0F29E1DDD47BEF28E91
:100660001D6ECFD750EF06F0938881B81BD0182AA3
:10067000D8B4192A020E4A6EF90E4B6E93DF4A2E39
:10068000FBD74950195C0AE303E14850185C06E3C4
:10069000196A186A010E016E07D003D0000E016EB0
:1006A00003D002D0000E016E6CEF03F048C04DF095
:1006B00038DD49C04DF035DD4AC04DF032DD4BC06C
:1006C0004DF02FDD95988C8895988C987DEF03F0F0
:1006D000496A47C048F0C8D701520FE0452A45BED5
:1006E00005D04550070802E2456A2ADF466A486A93
:1006F000496A4A6A45C04BF0D9D753EF06F0938A4E
:1007000081BA1BD0182AD8B4192A020E4A6EF90EE3
:100710004B6E48DF4A2EFBD74950195C0AE303E1D0
:100720004850185C06E3196A186A010E016E07D07A
:1007300003D0000E016E03D002D0000E016EF9EF5F
:1007400004F04F50016A4E5C03E24EC000F00CD042
:10075000006A080E506E4E3600364F50005CD8B01E
:10076000006E0136502EF7D7120048384C6E0F0E2F
:100770004C1648500F0B4B6E4C500A0DF3504B2447
:100780004A6E495202E14A2A01D04A064AC04EF056
:100790000A0E4F6ED6DF01C04CF04AC04EF00A0E72
:1007A0004F6ECFDF00C04BF04C38006EF00E0016DD
:1007B00000504B104D6E4DC001F012009380050E9D
:1007C000006E002EFED79382060E006E002EFED71E
:1007D0008A909390050E006E002EFED78A92939217
:1007E000D00E4A6E05DD48C04AF002DD49C04AF02D
:1007F000FFDC93900000938281A2FED7050E006E6D
:10080000002EFED700D000009380050E006E002E53
:10081000FED712002F50590802E12F6A06D02FC0D0
:1008200048F0496AA2DF01C02FF0486A2FC049F0A2
:10083000C5DF4DEF04F03050590802E1306A06D0B0
:1008400030C048F0496A91DF01C030F0010E486EB7
:1008500030C049F0B3DF4DEF04F03150230802E11E
:10086000316A06D031C048F0496A7FDF01C031F0FB
:10087000020E486E31C049F0A1DF4DEF04F0455043
:10088000010A05E0030A05E0010A05E006D0C2D727
:1008900004D0D1D702D0E1D700D00EEF05F035500B
:1008A000990802E1356A06D035C048F0496A5DDF33
:1008B00001C035F0060E486E35C049F07FDF95EF78
:1008C00004F03450120803E1010E346E06D034C037
:1008D00048F0496A4ADF01C034F0050E486E34C062
:1008E00049F06CDF95EF04F03350310803E1010E5D
:1008F000336E06D033C048F0496A37DF01C033F0A9
:10090000040E486E33C049F059DF95EF04F04550AE
:10091000040A05E0010A05E0030A05E006D0BFD796
:1009200004D0CFD702D0E0D700D00EEF05F0325080
:10093000080803E1020E326E01D0322A030E486E1F
:1009400032C049F03BDF0EEF05F0036A4A50F2CFA8
:100950004CF0F29E60EC00F04CBEF28E016E4C6EDC
:100960004C1E4CC04DF091EC00F04BC04CF04C1EB6
:100970004CC04DF091EC00F0959A8C8A959A8C9A27
:100980001200EA6A490EE96EEF500DE0060E016EA4
:10099000006A002EFED7012EFBD77B0E006E002EC4
:1009A000FED7EF2EF3D7F1EF04F0080E4A6E4B6836
:1009B000CCDFF2EF04F0486A486A4850070814E3B5
:1009C000036A48501E0FE96E000E0320EA6EEFCF57
:1009D00049F048C04AF049C04BF0B7DF010E496EFC
:1009E000D0D7E3D7482AE9D71200496A47C048F070
:1009F00086D6015215E0466A45BE03D0455003082D
:100A000002E33DD70BD045BE03D04550060802E3B4
:100A10007ED704D045500708D8B489D791DDCBDF05
:100A200056EF06F0938681B61BD0182AD8B4192A3F
:100A3000020E4A6EF90E4B6EB5DD4A2EFBD74950B9
:100A4000195C0AE303E14850185C06E3196A186A66
:100A5000010E016E07D003D0000E016E03D002D04C
:100A6000000E016ED7EF05F02F5203E1590E2F6EE5
:100A700007D02FC048F0010E496E77DE01C02FF07D
:100A8000486A2FC049F09ADE7AEF05F0305203E150
:100A9000590E306E07D030C048F0010E496E65DE49
:100AA00001C030F0010E486E30C049F087DE7AEFA9
:100AB00005F0315203E1230E316E07D031C048F00A
:100AC000010E496E52DE01C031F0020E486E31C097
:100AD00049F074DE7AEF05F04550010A05E0030A9B
:100AE00005E0010A05E006D0BFD704D0CFD702D079
:100AF000E0D700D0ECEF05F0355203E1990E356EEA
:100B000007D035C048F0010E496E2FDE01C035F028
:100B1000060E486E35C049F051DEC3EF05F0342CA7
:100B200003D0120E346E07D034C048F0010E496E67
:100B30001CDE01C034F0050E486E34C049F03EDEC4
:100B4000C3EF05F0332C03D0310E336E07D033C022
:100B500048F0010E496E09DE01C033F0040E486E04
:100B600033C049F02BDEC3EF05F04550040A05E021
:100B7000010A05E0030A05E006D0BED704D0CFD7AE
:100B800002D0E0D700D0ECEF05F03250020803E1CC
:100B9000080E326E01D03206030E486E32C049F0A4
:100BA0000DDEECEF05F0496A47C048F03BD7015233
:100BB00015E0466A45BE03D04550030802E38CD7D2
:100BC0000BD045BE03D04550060802E3CED704D073
:100BD00045500708D8B4D9D7B3DCEDDE59EF06F09D
:100BE000F86AD09E078EB886080EAF6E020EB06E01
:100BF000A60EAC6E900EAB6E196A186A3C684190F6
:100C00004192446A456A466AC150C00B0F09C16EE1
:100C1000070EB46E0FD00C401AFF16803008130672
:100C20000804229095303010082002209096000091
:100C300000000000000EF86E0C0EF76E160EF66E39
:100C40000900F550006E000A13E00900F550016E2E
:100C5000E8BE05D00F0BEA6E0900F5CFE9FF01BC35
:100C6000090001AC0900F5CFEEFF004EE9D7F9D736
:100C7000F86ADBEF00F0B50EB16E0B0EB36EDC0E52
:100C8000B26EC00EF212A082436A446A456A00EF57
:100C900002F0435009080FE34552D8A471D4C3D4DD
:100CA000640E476E15D5280E476E9FD6280E476EE8
:100CB0007AD781DE13D0436A46BE03D04650090876
:100CC00002E3462A01D0456A080E476E61EC01F046
:100CD0002F50425C03E02FC042F032DCDAD7030031
:020000040030CA
:0E00000007CC3E1E0087A1000FC00FE00F408E
:00000001FF
;PIC18F4550
;CRC=58EC  CREATED="15-Apr-22 12:57"
