:10000000B2EF03F0F76A140FF66E000EF722090044
:10001000F5501200C0F9A4B0999282F880908883BC
:10002000C6A1868EF76A340FF66E000EF72209001D
:10003000F55012007FBFDFEFF7FBFDFEFF002E0043
:100040002E002E004E4F2044485431310000444FC2
:100050004320534149204455204C494555204448AC
:10006000543131004E4F2044533138423230000079
:100070004A6A4A5007080EE349BE02D08D9401D067
:100080008D84969496908D9096908D80D8904936D8
:100090004A2AEFD712003EC03FF03DC040F03FC0BB
:1000A00049F0E6DF40C049F0E3DF12003E6A3D6AF6
:1000B000F2DF3E6A3D6AEFDF3E6A3D6AECDF3E6A90
:1000C0003D6AE9DF95968C8695968C9695988C88F6
:1000D00095988C98959A8C8A959A8C9A959E8C8EE8
:1000E000959E8C9E95948C8495948C943E683D68E6
:1000F000D2DF3E683D68CFDF959C8C8C959C8C9CB4
:100100008EEF00F0FF0E926E3C0E936EF10E946E29
:10011000000E966E956E956A8C6AC8D7F19E056A38
:10012000046AC050C00B0209C06EC08EC280C150AC
:10013000C00B0C09C16E95908C9007EF04F004C0C1
:100140003DF005C03EF03EC049F092DF3DC049F0B1
:100150008FDF95968C8695968C96B1EF00F0048A89
:10016000EED708EF04F0F00EBA1694948B940C0EB0
:10017000BD6EB76AB66A94928B9209EF04F0016A79
:10018000026A006A036A485002E1475018E0100E04
:10019000496ED89045364636003603364850035CE3
:1001A00002E14750005C07E34750005ED8A0030619
:1001B0004850035ED88001360236492EEAD7120035
:1001C000036A3F500C0FE96E000E0320EA6E3EC03A
:1001D00046F03DC045F0486A0A0E476ED0DF00C0C9
:1001E00043F003C044F003C003F00050F2CF45F0E9
:1001F000F29E08DF45BEF28EEF6E010E3F24036AC9
:100200000C0FE96E000E0320EA6E3EC046F03DC0C2
:1002100045F0486A0A0E476EB2DF02C044F001C0E2
:1002200043F002C046F001C045F0486A0A0E476E2E
:10023000A6DF00C043F003C044F003C003F0005049
:10024000F2CF45F0F29EDEDE45BEF28EEF6E020E7C
:100250003F24036A0C0FE96E000E0320EA6E3EC0D5
:1002600046F03DC045F0486A640E476E88DF02C024
:1002700044F001C043F002C046F001C045F0486AB6
:100280000A0E476E7CDF00C043F003C044F003C099
:1002900003F00050F2CF45F0F29EB4DE45BEF28E80
:1002A000EF6E030E3F24036A0C0FE96E000E03206D
:1002B000EA6E3EC046F03DC045F0030E486EE80EC3
:1002C000476E5DDF02C044F001C043F002C046F05B
:1002D00001C045F0486A0A0E476E51DF00C043F086
:1002E00003C044F003C003F00050F2CF45F0F29E8B
:1002F00089DE45BEF28EEF6E402C3CD0030E3F24CB
:10030000036A0C0FE96E000E0320EA6EEF50C0087E
:1003100031E1030E3F24036A0C0FE96E000E032047
:10032000EA6EEF68020E3F24036A0C0FE96E000EBE
:100330000320EA6EEF50C0081DE1020E3F24036A5D
:100340000C0FE96E000E0320EA6EEF68010E3F24E9
:10035000036A0C0FE96E000E0320EA6EEF50C0082E
:1003600009E1010E3F24036A0C0FE96E000E032021
:10037000EA6EEF6820EF02F04450016A435C03E24A
:1003800043C000F00CD0006A080E456E43360036BC
:100390004450005CD8B0006E0136452EF7D71200ED
:1003A000036A3E500C0FE96E000E0320EA6E3DC05A
:1003B00043F00A0E446EE0DF036A0050F2CF42F0D1
:1003C000F29E20DE42BEF28EEF6E010E3E24036AE4
:1003D0000C0FE96E000E0320EA6E3DC043F00A0EDA
:1003E000446ECADF01C043F00A0E446EC5DF036AE3
:1003F0000050F2CF42F0F29E05DE42BEF28EEF6E6A
:100400003F2C14D0010E3E24036A0C0FE96E000E3F
:100410000320EA6EEF50C00809E1010E3E24036A92
:100420000C0FE96E000E0320EA6EEF6827EF02F072
:1004300035C03EF034C03DF03F6A010E406EC0D67C
:1004400036C03DF0050E3E6E010E3F6EA9D7BF0EC1
:10045000106E1200030E405E09E3EA6A400EE96E78
:10046000EF5004E001D000D0EF2EFDD712009386AC
:1004700081B61BD0062AD8B4072A020E3F6EF90EA9
:10048000406EE8DF3F2EFBD73E50075C0AE303E1F6
:100490003D50065C06E3076A066A010E016E07D04E
:1004A00003D0000E016E03D002D0000E016E90EF5B
:1004B00002F03D503F02F3CF01F0F4CF00F04002D4
:1004C000F35000263E503F02F3500020026E12000F
:1004D00045C049F0CDDD46C049F0CADD47C049F00E
:1004E000C7DD48C049F0C4DD95988C8895988C98F4
:1004F0008BEF02F03EC041F03DC042F040C043F0FF
:100500003FC044F041C045F042C046F043C047F010
:1005100044C048F0DDD712003E6A0A0E3D6EA7D7F0
:10052000015239E0365202E1375235E03650D8B444
:100530003706360637C03EF036C03DF0406A140E2E
:100540003F6EB7DF02C035F001C034F035C002F0B5
:1005500034C001F00232013202320132023201C0F3
:10056000BEFF02320230300B006EBD50CF0B0010C8
:10057000BD6E5EDF34520FE135520DE13A6A396AE1
:100580003C6A3B6A3AC03EF039C03DF03CC040F0A6
:100590003BC03FF0AFDF2AEF04F0938A81BA1BD053
:1005A000062AD8B4072A020E3F6EF90E406E52DFBB
:1005B0003F2EFBD73E50075C0AE303E13D50065C4B
:1005C00006E3076A066A010E016E07D003D0000E2B
:1005D000016E03D002D0000E016EF3EF02F03E6A0E
:1005E0000A0E3D6EDAD7015236E0375234E136500A
:1005F000310831E3362AD8B4372A37C03EF036C046
:100600003DF0406A140E3F6E54DF02C035F001C069
:1006100034F035C002F034C001F00232013202324F
:100620000132023201C0BEFF02320230300B006ED6
:10063000BD50CF0B0010BD6EFBDE33883A6A3968BF
:100640003C6A3B683AC03EF039C03DF03CC040F0E7
:100650003BC03FF04FDF2BEF04F0938881B832D0DE
:1006600033A830D03398376A366A37C03EF036C088
:100670003DF0406A140E3F6E1CDF02C035F001C031
:1006800034F035C002F034C001F0023201320232DF
:100690000132023201C0BEFF02320230300B006E66
:1006A000BD50CF0B0010BD6E3A6A396A3C6A3B6A96
:1006B0003AC03EF039C03DF03CC040F03BC03FF096
:1006C00019DFB6DE2CEF04F0036A3F50F2CF41F0A1
:1006D000F29EA8DC41BEF28E016E416E411E41C009
:1006E00049F0C6DC40C041F0411E41C049F0C0DCC9
:1006F000959A8C8A959A8C9A1200EA6A3E0EE96E57
:10070000EF500DE0060E016E006A002EFED7012E9E
:10071000FBD77B0E006E002EFED7EF2EF3D7ADEF8A
:1007200003F0080E3F6E4068CFDFAEEF03F03D6A86
:100730003D6A3D50070814E3036A3D500C0FE96E13
:10074000000E0320EA6EEFCF3EF03DC03FF03EC00A
:1007500040F0BADF010E3E6ED0D7E3D73D2AE9D78D
:1007600033EF04F0F86AD09EB886080EAF6E020E22
:10077000B06EA60EAC6E900EAB6E076A066A2A6863
:10078000306A220E2F6E326A200E316E3390339211
:1007900033943396376A366A33983A6A396A3C6AD0
:1007A0003B6AC150C00B0F09C16E070EB46E0FD06B
:1007B0000C4008FF1680505814080506229095300A
:1007C0003010082002209096000000000000000E6B
:1007D000F86E070EF76EB00EF66E0900F550006E5B
:1007E000000A13E00900F550016EE8BE05D00F0BBA
:1007F000EA6E0900F5CFE9FF01BC090001AC090070
:10080000F5CFEEFF004EE9D7F9D7F86A7BD4A7D42D
:10081000AAD4000E0609CA6EF90ECB6E356A346A88
:10082000376A366A35C002F034C001F00232013254
:1008300002320132023201C0BEFF02320230300BFE
:10084000006EBD50CF0B0010BD6EF2DDBF0E106EFE
:10085000339862D6C4D601D7386A38BE03D0385030
:0E086000010803E364D7382AF8D7F3D7030062
:020000040030CA
:0E00000007CC3E1E0087A1000FC00FE00F408E
:00000001FF
;PIC18F4550
;CRC=6C8A  CREATED="09-Jun-23 12:42"
