:1000000083EF06F0F76A140FF66E000EF722090070
:10001000F5501200C0F9A4B0999282F880908883BC
:10002000C6A1868EF76A340FF66E000EF72209001D
:10003000F550120080C094D4F76A480FF66E000E97
:10004000F7220900F5501200000102040305010225
:100050002003070306060204030306060203030542
:10006000070307202007070606030305000606040A
:10007000030501010720200700060204030500060E
:1000800002030305F76A940FF66E000EF7220900CB
:10009000F5501200070F1F1F1F1F1F1F1F1F1F00DC
:1000A000000000001C1E1F1F1F1F1F1F000000005C
:1000B000001F1F1F1F1F1F1F1F1F0F071F1F1F1F97
:1000C0001F1F1E1C1F1F1F0000001F1F1F1F1F1FA1
:1000D0001F1F1F1F2E002E002E004E4F204448547D
:1000E00031310000444F4320534149204455204CB6
:1000F000494555204448543131004E4F2044533136
:100100003842323000002E004F4E20004F4646004D
:10011000445331384100524F4D3A000042555A5A2B
:100120003A00756B755107080EE374BF02D08D94C9
:1001300001D08D84969496908D9096908D80D890D5
:100140007437752BEFD7120058C059F057C05AF0CA
:1001500059C074F0E6DF5AC074F0E3DF1200586A49
:10016000576AF2DF586A576AEFDF586A576AECDF5E
:10017000586A576AE9DF95968C8695968C9695987D
:100180008C8895988C98959A8C8A959A8C9A959E3D
:100190008C8E959E8C9E95948C8495948C945868A6
:1001A0005768D2DF58685768CFDF959C8C8C959C38
:1001B0008C9CE7EF00F0FF0E926E3C0E936EF10EFA
:1001C000946E000E966E956E956A8C6AC8D7F19EF5
:1001D000056A046AC050C00B0209C06EC08EC2809E
:1001E000C150C00B0C09C16E95908C90E6EF06F0E3
:1001F00026C074F096DF27C074F093DF28C074F037
:1002000090DF29C074F08DDF95948C8495948C9444
:1002100011EF01F06D51286E281E6EC029F0291EC5
:10022000E7D712002A802AC06DF06CC06EF0F2DFB2
:10023000200E006E002EFED700D000002A902AC0AB
:100240006DF06CC06EF0E6DF12002A946BC06CF0AB
:10025000E9DF1200EA6A570EE96EEF500DE0060E74
:10026000016E006A002EFED7012EFBD77B0E006EBA
:10027000002EFED7EF2EF3D712002A902A922A845E
:100280002A96380E6B6FE1DF420E006E002EFED70D
:1002900000000C0E6B6FD9DF420E006E002EFED7F1
:1002A0000000010E6B6FD1DF020E576ED3DF060E1A
:1002B0006B6FCBDF420E006E002EFED70000E8EF22
:1002C00006F02A8468C06CF0ADDF1200400E6B6F40
:1002D000BCDF576A57503F080DE3036A5750F2CF0F
:1002E00058F0F29ECFDE58BEF28E586E686FE9DF8E
:1002F000572AF0D7EAEF06F0036A6851F2CF6AF0A6
:10030000F29E90DE6ABFF28E69256A6F6B6F9DDF89
:1003100012000900F5520CE0F6CF64F0F7CF65F05B
:10032000F5CF68F0CEDF64C0F6FF65C0F7FFF1D708
:100330001200030E665F09E3EA6A660EE96EEF508B
:1003400004E001D000D0EF2EFDD71200929A929ACD
:10035000899A020E656FF90E666FEBDF652FFBD78A
:10036000928A070E006E002EFED700D0000080BAE1
:1003700003D0000E016E10D06B0E006E002EFED763
:1003800000D00000649180AA6481F00E666FD1DF16
:10039000000E64B1010E016E1200929A929A899A2F
:1003A000100E006E002EFED7000067530EE0929AEA
:1003B000929A898A100E006E002EFED7000080BA35
:1003C00003D0000E016E1FD00DD0929A929A899A96
:1003D000100E006E002EFED7000080AA03D0000E83
:1003E000016E11D0520E006E002EFED700D000001C
:1003F000929A929A898A520E006E002EFED700D0F1
:100400000000010E016E12EF02F0010E656F6551E2
:1004100008080FE3D8906433000ED8B0010E666F61
:10042000676FBBD7015203E1000E016E04D0652B4C
:10043000EED7010E016E120089DFCC0E646FE5DF8E
:100440004E0E646FE2DF646BE0DF646BDEDF7F0E15
:10045000646FDBDF7BDFCC0E646FD7DF440E646F2D
:10046000D4DFF6EF06F0929A929A899A160E006EF1
:10047000002EFED700D00000928A070E006E002EDC
:10048000FED700D00000689180BA6881A60E006E89
:10049000002EFED70000000E68B1010E016E57EF6E
:1004A00002F0010E666F6651080809E3DCD70152BD
:1004B00002E1D89001D0D8806733662BF4D767C0AB
:1004C00001F01200686B696B17DFFA0EF66E000E12
:1004D000F76E1FDF12003ADF015255E0330E646FF2
:1004E00094DF636B63BF03D06351070813E3036AB0
:1004F0006351590F016E000E032201C064F003C066
:1005000065F0CFDF65C0EAFF64C0E9FF01C0EFFF1F
:10051000632BE8D757C068F058C069F0EDDE070ECE
:10052000636F6351800A7F082DE2036A6351590F9C
:10053000E96E000E0320EA6EEF38616F0F0E61174F
:100540006151090803E2370E612702D0300E61279E
:10055000036A6351590FE96E000E0320EA6EEF50F3
:100560000F0B626F6251090803E2370E622702D057
:10057000300E622761C068F0A4DE62C068F0A1DEC0
:100580006307CFD701D09EDF07EF07F0686B0B0E34
:10059000696FB2DE0C0EF66E010EF76EBADE120057
:1005A000CC0E646F32DFBE0E646F2FDF7ADF01C0C6
:1005B00057F077DF01C058F058C05AF057C059F0D3
:1005C000C5DECC0E646F21DF440E646F1EDF59C0A0
:1005D00001F05AC002F0EFEF04F0016A026A006A0B
:1005E000036A6C5102E16B5118E0100E6D6FD890E8
:1005F00069376A37003603366C51035C02E16B5190
:10060000005C07E36B51005ED8A003066C51035EEB
:10061000D880013602366D2FEAD71200006A016ACF
:100620006751D89068B100260032013268B30026C5
:100630000032013268B500260032013268B7002668
:100640000032013268B900260032013268BB002650
:100650000032013268BD00260032013268BF002638
:10066000003201324CEF03F064C068F065C069F0FD
:1006700043DE666B6651050824E36651030807E113
:10068000010E6425676F686F65C069F035DE63C071
:1006900067F0060E686FC2D70150686B676F036A18
:1006A00066516725016E685103220150F2CF67F051
:1006B000F29EC2DC67BFF28E676F686F02DE662B48
:1006C000D9D7120062C068F063C069F015DE646BB0
:1006D000645105080FE36451030807E1010E622528
:1006E000656F686F63C069F007DE200E686FE9DD33
:1006F000642BEED7BAEF03F05DC068F05EC069F01E
:10070000FBDD5CC06AF05BC069F06C6B0A0E6B6F5E
:1007100064DF02C063F001C062F002C06AF001C091
:1007200069F06C6B0A0E6B6F58DF00C060F05CC044
:100730006AF05BC069F06C6B0A0E6B6F4EDF00C035
:1007400061F060C063F05DC064F05EC065F08CDF96
:10075000030E5E24626F61C063F05DC064F0656F7C
:1007600083DF605307E15F5205E05DC062F05EC069
:1007700063F0A8D731EF04F05B505D02F3CF01F0D6
:10078000F4CF00F05E02F35000265C505D02F3509F
:100790000020026E4BEF04F061C068F062C069F0A7
:1007A000ABDD60C06AF05FC069F06C6B640E6B6FAC
:1007B00014DF02C068F001C067F002C06AF001C037
:1007C00069F06C6B0A0E6B6F08DF300E0024646FEB
:1007D00060C06AF05FC069F06C6B0A0E6B6FFDDE83
:1007E00002C068F001C067F002C06AF001C069F0A1
:1007F0006C6B0A0E6B6FF1DE300E0024656F60C00B
:100800006AF05FC069F06C6B0A0E6B6FE6DE300E4B
:100810000024666F63530AE06451300807E1200E3C
:10082000646F6551300802E1200E656F64C068F0A6
:1008300048DD65C068F045DD66C068F042DD6AEFFE
:1008400004F04F50505C12E04FC050F05A520EE08E
:100850005C6A4FC05BF057C05DF058C05EF05F6AE5
:100860004BD7060EF66E010EF76E53DD5350555CF6
:1008700003E15450565C2EE054C056F053C055F07E
:100880005A5228E054C05CF053C05BF0020E5E6E1A
:10089000710E5D6E71D702C05CF001C05BF002C0EA
:1008A0006AF001C069F06C6B0A0E6B6F96DE02C0D5
:1008B0005CF001C05BF0010E57245D6E070E5824FA
:1008C0005E6E02C060F001C05FF05DC061F0626FFB
:1008D000636B62D709EF05F06051016A5F5C03E268
:1008E0005FC000F00CD0006A080E616F5F36003602
:1008F0006051005CD8B0006E0136612FF7D712004E
:10090000036A5A50080FE96E000E0320EA6E59C0C0
:100910005FF00A0E606FE0DF036A0050F2CF5EF016
:10092000F29E02EC00F05EBEF28EEF6E010E5A5C9B
:10093000036A080FE96E000E0320EA6E59C05FF0EB
:100940000A0E606FC9DF01C05FF00A0E606FC4DF7E
:10095000036A0050F2CF5EF0F29E02EC00F05EBE41
:10096000F28EEF6E5B2C14D0010E5A5C036A080FF6
:10097000E96E000E0320EA6EEF50C00809E1010E97
:100980005A5C036A080FE96E000E0320EA6EEF68F6
:10099000E8EF04F00BC074F091EC00F00AC074F0C2
:1009A00091EC00F009C074F091EC00F008C074F014
:1009B00091EC00F0959C8C9C959C8C8CE9EF04F05C
:1009C000585207E04FC059F057C05AF05B6A98D7A9
:1009D000E1D70DEF05F0BADC015220E0E1D502C00D
:1009E00052F001C051F05230036E5130026E0332AA
:1009F0000232033202320332023202C04FF051504F
:100A00000F0B536E546A010E576E586A596E5A6E28
:100A100018D7010E576E586ED3D701D053DD16EF9D
:100A200007F004C060F005C061F061C074F091ECA3
:100A300000F060C074F091EC00F095968C8695966D
:100A40008C9612000580EDDF12000594EADF12009B
:100A50000590E7DF12000584E4DF120070C074F037
:100A600091EC00F071C074F091EC00F072C074F081
:100A700091EC00F073C074F091EC00F095988C88C4
:100A800095988C9855EF05F069C06CF068C06DF0D2
:100A90006BC06EF06AC06FF06CC070F06DC071F02A
:100AA0006EC072F06FC073F0D9D768EF05F062C006
:100AB00064F063C065F061C067F060C066F065C057
:100AC00069F064C068F067C06BF066C06AF0DCD79C
:100AD000120030505D5C0BE303E15C502F5C07E2D9
:100AE00033B005D0338033B2ADDFAFDF17D05D5008
:100AF000305C0AE303E12F505C5C06E233A004D0D3
:100B0000339033B2A5DF0AD05D50325C07E303E1D6
:100B100031505C5C03E233B001D09DDF636B0F0E9C
:100B2000626FF00E616F606BC2DF3EEF06F0305017
:100B30005D5C12E303E15C502F5C0EE230505F5CC1
:100B40000BE303E15E502F5C07E233B005D0338046
:100B500033B278DF7ADF25D05D50305C11E303E1FA
:100B60002F505C5C0DE25F50305C0AE303E12F50D4
:100B70005E5C06E233A004D0339033B269DF11D05B
:100B80005D50325C0EE303E131505C5C0AE25F5081
:100B9000325C07E303E131505E5C03E233B001D025
:100BA0005ADF636B0F0E626FF00E616F606B7FDF59
:100BB0003EEF06F030505D5C04E30AE15C502F5CD0
:100BC00007E330505F5C0BE303E15E502F5C07E20C
:100BD00033B005D0338033B235DF37DF25D05D50F9
:100BE000305C11E303E12F505C5C0DE25F50305C40
:100BF0000AE303E12F505E5C06E233A004D0339099
:100C000033B226DF11D05D50325C04E30AE131508B
:100C10005C5C07E35F50325C07E303E131505E5CEC
:100C200003E233B001D017DF636B0F0E626FF00E7B
:100C3000616F606B3CDF3EEF06F05B2C06D058C066
:100C40005DF057C05CF045D719D05B5002080AE14F
:100C500058C05DF057C05CF05AC05FF059C05EF0FC
:100C600066D70CD05B50030809E158C05DF057C04F
:100C70005CF05AC05FF059C05EF09CD71EEF07F0E1
:100C8000938481B41CD0062AD8B4072A020E596E68
:100C9000F90E666F99EC01F0592EFAD75850075C9F
:100CA0000AE303E15750065C06E3076A066A010E91
:100CB000016E07D003D0000E016E03D002D0000EEB
:100CC000016E74EF06F0686B0B0E696F7CEC01F03F
:100CD000080EF66E010EF76E89EC01F07DEF06F05E
:100CE000586A320E576ECCD701520BE0337233A2E2
:100CF00002D0E9D702D04ADCABDEC80E576E2AEC30
:100D000001F01FEF07F0F86AD09EB886080EAF6EAC
:100D1000020EB06EA60EAC6E900EAB6E076A066A3F
:100D20002A68306A220E2F6E326A200E316E33909E
:100D300033924C6A339433863398339A506A566AA6
:100D4000320E556EC150C00B0F09C16E070EB46E46
:100D50001CD00C4008FF168050581408050622903D
:100D600095303010082002209096000000001800F6
:100D7000341D0017001B000F001D00150017001385
:100D8000001B000B000F000D0000000EF86E0D0E92
:100D9000F76E520EF66E0900F550006E000A13E071
:100DA0000900F550016EE8BE05D00F0BEA6E090090
:100DB000F5CFE9FF01BC090001AC0900F5CFEEFF5A
:100DC000004EE9D7F9D7F86ADBEF00F03DEF01F00C
:100DD00066EF01F0686B696B7CEC01F0100EF66E4B
:100DE000010EF76E89EC01F01CEF02F0030E686F44
:100DF000696B7CEC01F0160EF66E010EF76E89EC55
:100E000001F0030E576E040E586E6BEF02F0686B24
:100E1000060E696F7CEC01F01C0EF66E010EF76E8B
:100E200089EC01F03392C6EC02F0D5D5586A4FC078
:100E300057F05A6A596A010E5B6EFFD651D7F5D743
:020E40000300AD
:020000040030CA
:0E00000007CC3E1E0087A1000FC00FE00F408E
:00000001FF
;PIC18F4550
;CRC=9FE7  CREATED="30-Jun-23 19:14"
