:04000000A1EF01F07B
:08000800046ED8CF05F0E0CF33
:1000100006F00001E9CF0CF0EACF07F0E1CF08F0DD
:10002000E2CF09F0D9CF0AF0DACF0BF0F3CF12F01C
:10003000F4CF13F0FACF14F000C00EF001C00FF0AF
:1000400002C010F003C011F0A0A22AEF00F0A1B28C
:1000500089EF00F00EC000F00FC001F010C002F0F8
:1000600011C003F00CC0E9FF07C0EAFF078E08C00B
:10007000E1FF09C0E2FF0AC0D9FF0BC0DAFF12C0DE
:10008000F3FF13C0F4FF14C0FAFF045006C0E0FFF2
:1000900005C0D8FF1000F2CF0DF0F29EF76AB00F46
:1000A000F66E000EF7220900F5500DBEF28E12001A
:1000B000C0F9A4B0999282F880908883C6A1868EF8
:1000C000F2CF0DF0F29EF76ADA0FF66E000EF7220D
:1000D0000900F5500DBEF28E12007FBFDFEFF7FB77
:1000E000FDFEFF002E004E4F2044485431310000E9
:1000F000444F4320534149204455204C4945552005
:100100004448543131004E4F20445331384232304C
:100110000000432A0B0EB36EDC0EB26EA1922AEFE2
:1001200000F04B6A4B5007080EE34ABE02D08D9494
:1001300001D08D84969496908D9096908D80D890D5
:100140004A364B2AEFD7120046C047F045C048F068
:1001500047C04AF0E6DF48C04AF0E3DF1200466AD3
:10016000456AF2DF466A456AEFDF466A456AECDFB8
:10017000466A456AE9DF95968C8695968C969598A1
:100180008C8895988C98959A8C8A959A8C9A959E3D
:100190008C8E959E8C9E95948C8495948C944668B8
:1001A0004568D2DF46684568CFDF959C8C8C959C6E
:1001B0008C9CE7EF00F0FF0E926E3C0E936EF10EFA
:1001C000946E000E966E956E956A8C6AC8D7F19EF5
:1001D000176A166AC050C00B0209C06EC08EC2807A
:1001E000C150C00B0C09C16E95908C90E8EF01F0E6
:1001F0004C50016A4B5C03E24BC000F00CD0006A2B
:10020000080E4D6E4B3600364C50005CD8B0006E78
:1002100001364D2EF7D71200036A46501E0FE96EC5
:10022000000E0320EA6E45C04BF00A0E4C6EE0DF74
:10023000036A0050F2CF4AF0F29E2DDF4ABEF28EE2
:10024000EF6E010E4624036A1E0FE96E000E0320B6
:10025000EA6E45C04BF00A0E4C6ECADF01C04BF08F
:100260000A0E4C6EC5DF036A0050F2CF4AF0F29ED0
:1002700012DF4ABEF28EEF6E472C14D0010E4624D8
:10028000036A1E0FE96E000E0320EA6EEF50C008ED
:1002900009E1010E4624036A1E0FE96E000E0320D9
:1002A000EA6EEF681200036A4750F2CF49F0F29EFF
:1002B00007DF49BEF28E016E496E491E49C04AF001
:1002C00030DF48C049F0491E49C04AF02ADF959AFC
:1002D0008C8A959A8C9A1200EA6A460EE96EEF5063
:1002E0000DE0060E016E006A002EFED7012EFBD730
:1002F0007B0E006E002EFED7EF2EF3D79CEF01F0A1
:10030000080E476E4868CFDF9DEF01F0456A456AE9
:100310004550070814E3036A45501E0FE96E000EAE
:100320000320EA6EEFCF46F045C047F046C048F0E4
:10033000BADF010E466ED0D7E3D7452AE9D702EFE0
:1003400002F0F86AD09E078EB886080EAF6E020ED5
:10035000B06EA60EAC6E900EAB6E196A186A3C6851
:1003600041904192C150C00B0F09C16E070EB46E8F
:100370000FD00C401AFF168030331503160221905F
:1003800091303010082002209096000000000000FC
:10039000000EF86E030EF76E720EF66E0900F55041
:1003A000006E000A13E00900F550016EE8BE05D0AA
:1003B0000F0BEA6E0900F5CFE9FF01BC090001ACA3
:1003C0000900F5CFEEFF004EE9D7F9D7F86AF3D66A
:1003D000B50EB16E0B0EB36EDC0EB26EC00EF21225
:1003E000A082426A436A446A42C045F0466A476A4C
:1003F00013DF44C045F0030E466E476A0DDFBF0EA3
:10040000206E84D743BE18D04350090815E20A0E67
:10041000435E422A42503C0802E1426A442A42C0FA
:1004200045F0466A476AF8DE44C045F0030E466E62
:0C043000476AF2DEBF0E206EE4D7030026
:020000040030CA
:0E00000007CC3E1E0087A1000FC00FE00F408E
:00000001FF
;PIC18F4550
;CRC=5CF7  CREATED="31-Mar-22 21:06"
