:10000000FBEF02F0F76A140FF66E000EF7220900FC
:10001000F5501200C0F9A4B0999282F880908883BC
:10002000C6A1868E2E004E4F204448543131000028
:10003000444F4320534149204455204C49455520C5
:100040004448543131004E4F20445331384232300D
:100050000000636B635107080EE362BF02D08D940A
:1000600001D08D84969496908D9096908D80D890A6
:100070006237632BEFD7120057C058F056C059F0C3
:1000800058C062F0E6DF59C062F0E3DF1200576A41
:10009000566AF2DF576A566AEFDF576A566AECDF34
:1000A000576A566AE9DF95968C8695968C96959850
:1000B0008C8895988C98959A8C8A959A8C9A959E0E
:1000C0008C8E959E8C9E95948C8495948C94576878
:1000D0005668D2DF57685668CFDF959C8C8C959C0C
:1000E0008C9C7FEF00F0FF0E926E3C0E936EF10E33
:1000F000946E000E966E956E956A8C6AC8D7F19EC6
:10010000056A046AC050C00B0209C06EC08EC2806E
:10011000C150C00B0C09C16E95908C905CEF03F040
:10012000016A026A006A036A615102E1605118E0E3
:10013000100E626FD8905E365F360036033661511E
:10014000035C02E16051005C07E36051005ED8A0EF
:1001500003066151035ED88001360236622FEAD76A
:100160001200036A5850080FE96E000E0320EA6E71
:1001700057C05FF056C05EF0616B0A0E606FD0DF53
:1001800000C05CF003C05DF003C003F00050F2CF8C
:100190005EF0F29E37DF5EBEF28EEF6E010E585CAF
:1001A000036A080FE96E000E0320EA6E57C05FF085
:1001B00056C05EF0616B0A0E606FB2DF02C05DF088
:1001C00001C05CF002C05FF001C05EF0616B0A0E1E
:1001D000606FA6DF00C05CF003C05DF003C003F0F9
:1001E0000050F2CF5EF0F29E0DDF5EBEF28EEF6E3B
:1001F000020E585C036A080FE96E000E0320EA6ED7
:1002000057C05FF056C05EF0616B640E606F88DFB0
:1002100002C05DF001C05CF002C05FF001C05EF0A2
:10022000616B0A0E606F7CDF00C05CF003C05DF0A4
:1002300003C003F00050F2CF5EF0F29EE3DE5EBE3C
:10024000F28EEF6E592C28D0020E585C036A080F0C
:10025000E96E000E0320EA6EEF50C0081DE1020EA9
:10026000585C036A080FE96E000E0320EA6EEF681F
:10027000010E585C036A080FE96E000E0320EA6E57
:10028000EF50C00809E1010E585C036A080FE96EDF
:10029000000E0320EA6EEF6869EF01F00BC062F018
:1002A000D8DE0AC062F0D5DE09C062F0D2DE08C036
:1002B00062F0CFDE959C8C9C959C8C8C81EF01F03C
:1002C00053C057F052C056F0030E586E010E596ECF
:1002D00048D755C05FF054C05EF0616B0A0E606F86
:1002E0001FDF00C056F003C057F003C003F00050FA
:1002F000F2CF58F0F29E86DE58BEF28E7F0B086E6B
:10030000CDD712005EC062F0A4DE5FC062F0A1DE55
:1003100060C062F09EDE61C062F09BDE95988C88C2
:1003200095988C98A5EF01F057C05AF056C05BF035
:1003300059C05CF058C05DF05AC05EF05BC05FF021
:100340005CC060F05DC061F0DDD71200030E595E45
:1003500009E3EA6A590EE96EEF5004E001D000D0DB
:10036000EF2EFDD71200938681B61BD0062AD8B493
:10037000072A020E586EF90E596EE8DF582EFBD789
:100380005750075C0AE303E15650065C06E3076A30
:10039000066A010E016E07D003D0000E016E03D075
:1003A00002D0000E016E34EF02F004C058F005C018
:1003B00059F059C062F04DDE58C062F04ADE9596A1
:1003C0008C8695968C961200EA6A590EE96EEF506B
:1003D0000DE0060E016E006A002EFED7012EFBD73F
:1003E0007B0E006E002EFED7EF2EF3D71200058095
:1003F000DCDF57C058F0582A5806D8B403D05968E3
:10040000E3DFFAD756C059F0DFDF0590CEDF1200E8
:10041000938A81BA11D033B60FD03386516A5068AF
:100420004F6A4E684FC057F04EC056F051C059F059
:1004300050C058F079DF2DD0938881B811D033A601
:100440000FD03396516A506A4F6A4E6A4FC057F0C8
:100450004EC056F051C059F050C058F065DF19D069
:10046000576A140E566E7FD7015213E033A60DD093
:100470003374501E511E4FC057F04EC056F051C03D
:1004800059F050C058F050DF04D0576A640E566ED1
:10049000AEDF64EF03F0938481B41BD0062AD8B496
:1004A000072A020E586EF90E596E50DF582EFBD7F0
:1004B0005750075C0AE303E15650065C06E3076AFF
:1004C000066A010E016E07D003D0000E016E03D044
:1004D00002D0000E016E71EF02F0576A140E566ED4
:1004E000DAD7015216E033A610D033784E1E4F1ED5
:1004F0004FC057F04EC056F051C059F050C058F0A0
:1005000013DF640E596E60DF04D0576A640E566EB6
:100510006EDF65EF03F0E00E0416D8904C34036AEA
:10052000340FE96E000E0320EA6EECCF03F0ED52BB
:10053000EF5004120350051238DF4C2A030E4C16FC
:10054000BEEF02F0E00E0416D8904C34036A340F6C
:10055000E96E000E0320EA6EECCF03F0ED52EF508F
:1005600004120350051221DF4C06030E4C16BEEF99
:1005700002F033A402D0CFD701D0E4D7FAEF02F0D3
:10058000E00E0416D8904C34036A3C0FE96E000E5E
:100590000320EA6EECCF03F0ED52EF50041203504B
:1005A000051203DF4C2A070E4C16F3EF02F0E00EA3
:1005B0000416D8904C34036A3C0FE96E000E0320F9
:1005C000EA6EECCF03F0ED52EF5004120350051227
:1005D000ECDE4C06070E4C16F3EF02F033A402D00B
:1005E000CFD701D0E4D7FAEF02F033A802D0C1D7B9
:1005F00001D0F4D71200F86AD09EB886080EAF6E0C
:10060000020EB06EA60EAC6E900EAB6E076A066A56
:100610002A68306A220E2F6E326A200E316E3390B5
:1006200033924C6A3394339633884F6A4E6A516AD8
:10063000506AC150C00B0F09C16E070EB46E1CD0BA
:100640000C4008FF168010221306220422909530D9
:100650003010082002209096000000001800341D81
:100660000017001B000F001D001500170013001BD2
:10067000000B000F000D0000000EF86E060EF76E66
:10068000400EF66E0900F550006E000A13E00900F6
:10069000F550016EE8BE05D00F0BEA6E0900F5CFEC
:1006A000E9FF01BC090001AC0900F5CFEEFF004EE7
:1006B000E9D7F9D7F86A17D5140E4D6E338433880D
:1006C000536A526AFDDDA4D608D733A61FD08DDF4A
:1006D0004DC059F079DE33B804D087DF4DC059F0F2
:1006E00073DE522AD8B4532A5250C8080EE153522E
:1006F0000CE1536A526A542AD8B4552A5450090856
:1007000004E1555202E1556A546ADADDDCD7030090
:020000040030CA
:0E00000007CC3E1E0087A1000FC00FE00F408E
:00000001FF
;PIC18F4550
;CRC=8DB9  CREATED="20-May-22 13:03"
