:1000000002EF02F0F76A140FF66E000EF7220900F5
:10001000F5501200C0F9A4B0999282F880908883BC
:10002000C6A1868E2E002E002E004E4F204448542E
:1000300031310000444F4320534149204455204C66
:10004000494555204448543131004E4F20445331E6
:10005000384232300000486A485007080EE347BE75
:1000600002D08D9401D08D84969496908D90969028
:100070008D80D8904736482AEFD712003CC03DF01B
:100080003BC03EF03DC047F0E6DF3EC047F0E3DF57
:1000900012003C6A3B6AF2DF3C6A3B6AEFDF3C6A73
:1000A0003B6AECDF3C6A3B6AE9DF95968C86959665
:1000B0008C9695988C8895988C98959A8C8A959A18
:1000C0008C9A959E8C8E959E8C9E95948C849594FE
:1000D0008C943C683B68D2DF3C683B68CFDF959CE2
:1000E0008C8C959C8C9C81EF00F0FF0E926E3C0EE8
:1000F000936EF10E946E000E966E956E956A8C6AF4
:10010000C8D7F19E056A046AC050C00B0209C06ED0
:10011000C08EC280C150C00B0C09C16E95908C90EE
:100120004FEF02F04350016A425C03E242C000F02C
:100130000CD0006A080E446E423600364350005C14
:10014000D8B0006E0136442EF7D71200036A3D5036
:10015000080FE96E000E0320EA6E3CC042F00A0E62
:10016000436EE0DF036A0050F2CF41F0F29E4ADFB7
:1001700041BEF28EEF6E010E3D5C036A080FE96E20
:10018000000E0320EA6E3CC042F00A0E436ECADF46
:1001900001C042F00A0E436EC5DF036A0050F2CF81
:1001A00041F0F29E2FDF41BEF28EEF6E3E2C14D056
:1001B000010E3D5C036A080FE96E000E0320EA6E33
:1001C000EF50C00809E1010E3D5C036A080FE96EBB
:1001D000000E0320EA6EEF6812000BC047F03BDF11
:1001E0000AC047F038DF09C047F035DF08C047F0E4
:1001F00032DF959C8C9C959C8C8C19EF01F033B46C
:1002000008D034C03CF0030E3D6E010E3E6E9EDF02
:1002100009D03450365C3B6E3C6E030E3D6E010ED1
:100220003E6E94DF36C03CF0010E3D6E3E6E8EDFBA
:10023000D4D728EF01F0D650346E3450355C08E046
:1002400034C035F03450365C02E2D76AD66AD7D76C
:1002500059EF02F0030E3E5E09E3EA6A3E0EE96ED4
:10026000EF5004E001D000D0EF2EFDD71200938AAA
:1002700081BA1BD0062AD8B4072A020E3D6EF90EA9
:100280003E6EE8DF3D2EFBD73C50075C0AE303E1FE
:100290003B50065C06E3076A066A010E016E07D052
:1002A00003D0000E016E03D002D0000E016E81EF6C
:1002B00001F043C047F0CFDE44C047F0CCDE45C07C
:1002C00047F0C9DE46C047F0C6DE95988C88959801
:1002D0008C987CEF01F03CC03FF03BC040F03EC04A
:1002E00041F03DC042F03FC043F040C044F041C047
:1002F00045F042C046F0DDD712003C6A640E3B6E0A
:10030000B6D7012C0DD0A80ED56E3A68396838C022
:100310003CF037C03BF03AC03EF039C03DF0DBDF87
:100320005AEF02F0938881B81BD0062AD8B4072A66
:10033000020E3D6EF90E3E6E8DDF3D2EFBD73C501A
:10034000075C0AE303E13B50065C06E3076A066AC2
:10035000010E016E07D003D0000E016E03D002D053
:10036000000E016EB8EF01F03C6A640E3B6EDAD706
:10037000012C0AD0D56A3A6A396A3C6A3B6A3AC0AB
:100380003EF039C03DF0A7DF5BEF02F0938681B607
:100390001BD0062AD8B4072A020E3D6EF90E3E6E17
:1003A00059DF3D2EFBD73C50075C0AE303E13B508D
:1003B000065C06E3076A066A010E016E07D003D0E9
:1003C000000E016E03D002D0000E016EECEF01F0C2
:1003D0003C6A640E3B6EDAD7012C12D03450365C86
:1003E000346ED76A34C0D6FF3374371E381E38C017
:1003F0003CF037C03BF03AC03EF039C03DF06BDF17
:100400005CEF02F0F86AD09EB886080EAF6E020E5E
:10041000B06EA60EAC6E900EAB6E076A066A2A68C6
:10042000306A220E2F6E326A200E316E3390339274
:100430003394C150C00B0F09C16E070EB46E0FD0BC
:100440000C4008FF168030370807040622909530CC
:100450003010082002209096000000000000000EDE
:10046000F86E040EF76E400EF66E0900F550006E41
:10047000000A13E00900F550016EE8BE05D00F0B2D
:10048000EA6E0900F5CFE9FF01BC090001AC0900E3
:10049000F5CFEEFF004EE9D7F9D7F86A26D6D56A30
:1004A000D76AD66A010E356E320E366E386A3768F4
:0C04B000C2D623D759D78CD7FBD7030046
:020000040030CA
:0E00000007CC3E1E0087A1000FC00FE00F408E
:00000001FF
;PIC18F4550
;CRC=BFA8  CREATED="05-Jun-22 10:24"
