:1000000050EF02F02E002E002E004E4F2044485498
:1000100031310000444F4320534149204455204C86
:10002000494555204448543131004E4F2044533106
:10003000384232300000526A525007080EE351BE77
:1000400002D08D9401D08D84969496908D90969048
:100050008D80D8905136522AEFD712003CC03DF027
:100060003BC03EF03DC051F0E6DF3EC051F0E3DF63
:1000700012003C6A3B6AF2DF3C6A3B6AEFDF3C6A93
:100080003B6AECDF3C6A3B6AE9DF95968C86959685
:100090008C9695988C8895988C98959A8C8A959A38
:1000A0008C9A959E8C8E959E8C9E95948C8495941E
:1000B0008C943C683B68D2DF3C683B68CFDF959C02
:1000C0008C8C959C8C9C71EF00F0FF0E926E3C0E18
:1000D000936EF10E946E000E966E956E956A8C6A14
:1000E000C8D7F19E056A046AC050C00B0209C06EF1
:1000F000C08EC280C150C00B0C09C16E95908C900F
:10010000A3EF02F0EA6A3F0EE96EEF500DE0060E33
:10011000016E006A002EFED7012EFBD77B0E006E0B
:10012000002EFED7EF2EF3D71200938A81BA1DD08E
:10013000140E3F6EE7DF938A81BA14D03B5203E07E
:10014000938A81AAFDD73DC03EF03E2A3E06D8B430
:1001500003D03F68D7DFFAD73CC03FF0D3DF010EB2
:10016000016E05D0000E016E02D0000E016EBEEFD2
:1001700000F0010E3B6E3D6A3C6AD7D701520AE09F
:100180003450040801E3342A366A356A3A6A396A17
:10019000386A376AA4EF02F0938881B81DD0140E34
:1001A0003F6EB0DF938881B814D03B5203E0938850
:1001B00081A8FDD73DC03EF03E2A3E06D8B403D00C
:1001C0003F68A0DFFAD73CC03FF09CDF010E016E14
:1001D00005D0000E016E02D0000E016EF5EF00F0AA
:1001E000010E3B6E3D6A3C6AD7D7015209E034529A
:1001F00001E03406366A356A3A6A396A386A376A1B
:10020000A5EF02F04DC051F016DF4EC051F013DFE4
:100210004FC051F010DF50C051F00DDF95988C8821
:1002200095988C9825EF01F046C049F045C04AF0FA
:1002300048C04BF047C04CF049C04DF04AC04EF0AA
:100240004BC04FF04CC050F0DDD738EF01F03FC04D
:1002500041F040C042F03EC044F03DC043F042C0D7
:1002600046F041C045F044C048F043C047F0DCD7F9
:100270001200406A3F6A3E6A3D6AE9DF3CC03DF0D9
:100280003D2A3D06D8B403D03F683CDFFAD73BC0D7
:100290003FF038DF40683F683E683D68D8DF3CC0CB
:1002A0003DF03D2A3D06D8B403D03F682BDFFAD796
:1002B0003BC03FF027DFC8EF02F0365231E1355046
:1002C0001F082EE3D89037343E6E38343F6E3934F1
:1002D000406E3A34416E010E3E24376E000E3F20D0
:1002E000386E000E4020396E000E41203A6E3AC042
:1002F00040F039C03FF038C03EF037C03DF0A7DFD6
:100300003CC03DF03D2A3D06D8B403D03F68FADE3C
:10031000FAD73BC03FF0F6DE352AD8B4362A29D0CA
:10032000365221E135503F081EE3D8903736383633
:1003300039363A363AC040F039C03FF038C03EF066
:1003400037C03DF084DF3CC03DF03D2A3D06D8B4C7
:1003500003D03F68D7DEFAD73BC03FF0D3DE352A63
:10036000D8B4362A06D0366A356A3A6A396A386AA3
:10037000376AC8EF02F036522CE135501F0829E3E6
:10038000D8903A30416E3930406E38303F6E373059
:10039000376E3FC038F040C039F0800E41243A6ECD
:1003A0003AC040F039C03FF038C03EF037C03DF0B1
:1003B0004EDF3CC03DF03D2A3D06D8B403D03F6837
:1003C000A1DEFAD73BC03FF09DDE352AD8B4362AED
:1003D00029D0365221E135503F081EE3D8903A32F9
:1003E0003932383237323AC040F039C03FF038C085
:1003F0003EF037C03DF02BDF3CC03DF03D2A3D06CE
:10040000D8B403D03F687EDEFAD73BC03FF07ADE37
:10041000352AD8B4362A06D03A6A396A386A376A31
:10042000366A356AC8EF02F036522BE135501F08A4
:1004300028E3800E3A6E396A386A376A35503D6E65
:1004400007E0D8903A323932383237323D2EF9D778
:100450003AC040F039C03FF038C03EF037C03DF000
:10046000F6DE3CC03DF03D2A3D06D8B403D03F68DF
:1004700049DEFAD73BC03FF045DE352AD8B4362AEC
:1004800006D03A6A396A386A376A366A356AC8EF16
:1004900002F0406A3F6A3E6A3D6AD9DEC8EF02F068
:1004A000F86AD09EB886080EAF6E020EB06EA60E29
:1004B000AC6E900EAB6E076A066A2A68306A220E2E
:1004C0002F6E326A200E316E33903392346A366A60
:1004D000356A3A6A396A386A376AC150C00B0F09FF
:1004E000C16E070EB46E0FD00C4008FF1680505836
:1004F00014080506229095303010082002209096AE
:10050000000000000000000EF86E040EF76EE80E0A
:10051000F66E0900F550006E000A13E00900F55070
:10052000016EE8BE05D00F0BEA6E0900F5CFE9FFBA
:1005300001BC090001AC0900F5CFEEFF004EE9D780
:10054000F9D7F86AC2D515D64BD6345206E1010E5A
:100550003C6E2C0E3B6E8DD61BD0342C05D03C6AE5
:10056000320E3B6EAAD614D03450020805E13C6A24
:10057000320E3B6E00D70CD03450030805E13C6AC4
:10058000320E3B6E51D704D034500408D8B481D712
:04059000DAD70300B3
:020000040030CA
:0E00000007CC3E1E0087A1000FC00FE00F408E
:00000001FF
;PIC18F4550
;CRC=F6F5  CREATED="19-Jun-23 12:01"
